:100000000C940C020C9429020C9429020C942902E1
:100010000C9429020C9429020C9429020C942902B4
:100020000C9429020C9429020C9464020C94290269
:100030000C9429020C9429020C9429020C94290294
:100040000C9429020C9429020C9429020C94290284
:100050000C9429023A0900093D0E3A093A043F0975
:100060003A0938093A090009410E3A093A044209A5
:1000700041093D093A09410946093A043809380459
:1000800035093C093A4C001C1C06280619062506B1
:100090001A062606000C00301C062806190625063E
:1000A0001A062606000C00301506210612061E064A
:1000B00013061F06000C00301506210612061E0648
:1000C00013061F06000C000C1F041E041D041C094F
:1000D00000031F0900031E090003180900031A0981
:1000E00000031D0900031C0422042104200426042B
:1000F000250424081F081B081A0819081808FF609F
:1001000036032F0335032F0334032F0329032F0353
:1001100036032F0337032F0336032F0335032F0333
:1001200036032F0335032F0334032F0329032F0333
:1001300036032F0337032F0336032F0335032F0313
:1001400035032E0334032E0335032E0336032E030B
:1001500035032E0336032E0335032E0334032E03FB
:1001600034032E0334032E0334032E0334032E03EF
:1001700034032E0334032E0334032E0334032E03DF
:10018000390332033A0332033903320338033203AB
:10019000390332033803320337033203380332039F
:1001A000390332033A03320339033203380332038B
:1001B000390332033803320337033203380332037F
:1001C000380638060006380600063406380C3B0CA4
:1001D000000C2F0C000C34122F06000C2C12310CCA
:1001E000330C3206310C2F0838083B083D0C390619
:1001F0003B060006380C34063606330C0006341273
:100200002F06000C2A12310C330C3206310C2F0849
:1002100038083B083D0C39063B060006380C34060E
:100220003606330C0006000C3B063A063906370C3E
:10023000380600063006310634060006310634065C
:100240003606000C3B063A063906370C380600061F
:10025000400600064006401200123B063A063906E8
:10026000370C380600063006310634060006310623
:1002700034063606000C370C0006360C0006341225
:100280000012000C3B063A063906370C3806000609
:100290003006310634060006310634063606000CF8
:1002A0003B063A063906370C3806000640060006BB
:1002B0004006401200123B063A063906370C380653
:1002C00000063006310634060006310634063606CE
:1002D000000C370C0006360C0006341200123406EF
:1002E000340C340600063406360C3806340C31065D
:1002F0002F303406340C3406000634063606380631
:1003000000603406340C340600063406360C380619
:10031000340C31062F303806380600063806000641
:10032000340638063B0C000C2F0C000C34122F0640
:1003300000062C12310C330C3206310C2F08380811
:100340003B083D0C39063B060006380C34063606E1
:10035000330C000634122F06000C2C12310C330C17
:100360003206310C2F0838083B083D0C39063B0695
:100370000006380C34063606330C00063806340CFA
:100380002F06000C300C3106390C390631120006EC
:1003900033083D083D083D083B0839083806340C51
:1003A00031062F1200063806340C2F06000C300CD4
:1003B0003106390C39063130330839083908390823
:1003C00038083608343000303806340C2F06000C5C
:1003D000300C3106390C39063112000633083D085D
:1003E0003D083D083B0839083806340C31062F1209
:1003F00000063806340C2F06000C300C3106390C80
:1004000039063130330839083908390838083608D0
:10041000343000300030000311241FBECFE5D8E097
:10042000DEBFCDBF11E0A0E6B0E0E2E0F6E002C042
:1004300005900D92AA3CB107D9F711E0AAECB1E002
:1004400001C01D92A53DB107E1F70E9493020C94F3
:10045000FF020C940000DC01CB018093C501909356
:10046000C601A093C701B093C8018093CA019093BD
:10047000CB01A093CC01B093CD0108952DE730E0DE
:1004800040E050E00E94E0020E942B0208958BE0C1
:1004900083BF81E08CBF82E089BF12BE8091C5011D
:1004A0009091C601A091C701B091C8018093CA0183
:1004B0009093CB01A093CC01B093CD018FB780680E
:1004C0008FBF089513BE08951F920F920FB60F921B
:1004D00011248F9381E08093CE018F910F900FBEF6
:1004E0000F901F901895FC0180E090E007C02081DC
:1004F000222311F02C5F20830196329686179707EE
:10050000B4F3089586E194E09093D0018093CF01F5
:100510001092D4011092D30181E090E09093D20127
:100520008093D10108958FEF8ABB1BBA87BB18BA9D
:1005300014BA85BB61E070E080E090E00E942B027D
:100540000E94470221E04091C0005091C10060919B
:10055000C2007091C3008091FC0A9091FD0AA091A5
:10056000FE0AB091FF0A84179507A607B70708F09F
:1005700020E028BBA0E080E090E0B1E0E3B3EE2310
:10058000C1F00196AC0160E070E0F0E0EE0FFF1FFB
:10059000EE0FFF1FE05AFF4F00811181228133814E
:1005A000401751076207730720F0AB27ABBB80E011
:1005B00090E02091CE012223E1F31092CE01DECF14
:1005C000629FD001739FF001829FE00DF11D649F37
:1005D000E00DF11D929FF00D839FF00D749FF00DC3
:1005E000659FF00D9927729FB00DE11DF91F639F64
:1005F000B00DE11DF91FBD01CF0111240895F8943C
:02060000FFCF2A
:10060200FFFF0000B80800006B080000E0070000D0
:1006120065070000F9060000990600004206000086
:10062200F40500008C0500004E050000FB040000EC
:10063200B10400007004000035040000F003000063
:10064200C1030000890300005803000021030000D9
:10065200FA020000CE020000A70200007D020000A4
:10066200580200003802000016020000FC010000DF
:10067200DD010000C1010000A9010000900100009D
:100682007A01000065010000510100003E010000F6
:100692002C0100001C0100000C010000FD00000004
:1006A200EE000000E1000000D4000000C8000000DD
:1006B200BD000000B3000000A80000009F00000081
:1006C200960000008E000000860000007E00000000
:1006D20077000000700000006A0000006400000063
:1006E2005E00000059000000540000004F000000AE
:1006F2004B00000047000000430000003F000000E4
:100702003B0000003800000035000000320000000D
:100712002F0000002C0000002A000000270000002B
:100722002500000023000000210000001F0000003F
:100732001D0000001C0000001A000000190000004B
:100742001700000016000000150000001300000052
:100752001200000011000000100000000F00000055
:0A0762000F0000000301000000007A
:00000001FF
