:100000000C942A000C9447000C9447000C94470071
:100010000C9447000C9447000C9447000C94470044
:100020000C9447000C9447000C948E000C944700ED
:100030000C9447000C9447000C9447000C94470024
:100040000C9447000C9447000C9447000C94470014
:100050000C94470011241FBECFE5D8E0DEBFCDBF12
:1000600010E0A0E6B0E0E4E5F6E002C005900D92F5
:10007000A636B107D9F713E0A6E6B0E001C01D929D
:10008000A130B107E1F70E948D020C9428030C9473
:100090000000DC01CB018093610090936200A0938B
:1000A0006300B09364008093E6029093E702A0930C
:1000B000E802B093E9020895DC01CB01AC01BD0177
:1000C000440F551F661F771F440F551F661F771F6C
:1000D000840F951FA61FB71FBC01CD010E944900C8
:1000E00008958BE083BF89E18CBF82E089BF12BE97
:1000F0008091610090916200A0916300B0916400D2
:100100008093E6029093E702A093E802B093E9029D
:100110008FB780688FBF089513BE08951F920F9206
:100120000FB60F9211248F939F93AF93BF9380913B
:10013000E6029091E702A091E802B091E9020197EE
:10014000A109B1098093E6029093E702A093E80227
:10015000B093E9020097A105B10599F481E080937D
:10016000EA028091610090916200A0916300B091D9
:1001700064008093E6029093E702A093E802B093B4
:10018000E902BF91AF919F918F910F900FBE0F9099
:100190001F9018958FEF87BB81E58DB908958FB9B2
:1001A000779BFECF08951F93CF93DF93C82F162F11
:1001B000D42F822FC198C19AC09AC0980E94CF00B4
:1001C000812F80950E94CF008D2F80950E94CF00B7
:1001D000C095CBBBC09AC098DF91CF911F91089575
:1001E0009F92AF92BF92CF92DF92EF92FF920F93C6
:1001F0001F93CF93DF939FEF9BBB9ABB8F5F0F2E15
:10020000FFE39F2EF02D98220F2EF7E0AF2EF02D5A
:10021000A8224A2D50E0DA01A295B295B07FBA2704
:10022000A07FBA27AA51BF4FCA0182959295907FAD
:100230009827807F98270F2EF6E6EF2EF1E0FF2E0D
:10024000F02DE80EF91ECA0182959295907F9827AD
:10025000807F98278C010A511E4FCA018295929582
:10026000907F9827807F9827EC01CA59DD4FCA01FB
:1002700082959295907F9827807F98270F2EF6EF92
:10028000CF2EF0E0DF2EF02DC80ED91E50E00F2E3D
:10029000F0E8BF2EF02D432F46952D913D91F701AB
:1002A000819191917F01F801619171918F01E991A3
:1002B000F991820F931F860F971F8E0F9F1F893012
:1002C000910510F03B2D01C0352F342BAC15BD0529
:1002D00011F781E090E0AC0102C0440F551FAA94D1
:1002E000E2F75A01832F60E040E02A2D0E94D300FC
:1002F000892DDF91CF911F910F91FF90EF90DF90AB
:10030000CF90BF90AF909F90089580B7886080BFD6
:1003100017B886B1866886B9089597B18770987FB7
:10032000982B97B9369A349BFECF84B195B1089536
:10033000DF92EF92FF920F931F93CF93DF931ABA3E
:100340001BBAD82FDF5FCD2FC770DD2ED694D69481
:10035000D694D694D694D694D394EC2EFF2481E0F0
:1003600090E0AC010C2E02C0440F551F0A94E2F736
:100370002D2F2695269526952770022F10E0BC017B
:1003800002C0660F771F2A95E2F79B01842F642F26
:100390000E94D3008C2F0E948D01AC01F801EE0F5A
:1003A000FF1FEE0FFF1FEE0FFF1FEE0DFF1DEE0FE5
:1003B000FF1FEA59FF4F808191818417950778F4D8
:1003C000F801EE0FFF1FEE0FFF1FEE0FFF1FEE0DE8
:1003D000FF1DEE0FFF1FEA59FF4F518340838D2D04
:1003E00090E0880F991F880F991F880F991F800F21
:1003F000911F880F991F880F991F880F991F8E0DC5
:100400009F1D26E630E0880F991FF901E80FF91FBC
:10041000C801880F991F880F991F880F991F8E0D8B
:100420009F1D880F991F820F931FDC018D919C9156
:100430001197841B950B918380838D2FDF91CF9132
:100440001F910F91FF90EF90DF9008958F929F92F0
:10045000AF92BF92CF92DF92EF92FF920F931F93D2
:10046000CF93DF931ABA1BBAAA24BB24CC24DD2471
:10047000C3948824992425C096010C2E02C0220F13
:10048000331F0A94E2F7812F612F412F0E94D3007E
:10049000802F0E948D01802F0E948D01D70111961F
:1004A0009C938E932196E0E1F0E0EE0EFF1EC830A3
:1004B000D10511F70894A11CB11CF8E0AF16B104E6
:1004C000B1F00A2DC6010A2C02C0880F991F0A94A8
:1004D000E2F7182FC501880F991F0F2EF6E6EF2EB1
:1004E000F0E0FF2EF02DE80EF91EE401C5CF8FEFEE
:1004F00099E6A8E181509040A040E1F700C00000DB
:10050000DF91CF911F910F91FF90EF90DF90CF90EF
:10051000BF90AF909F908F9008951ABACFEFCBBB4A
:10052000C7BB18BA14BAC5BB0E94CA000E94850195
:1005300061E070E080E090E00E9449000E9471005C
:10054000C093F60281E090E0A0E0B0E08093F70273
:100550009093F802A093F902B093FA028093FB0201
:100560009093FC02A093FD02B093FE0220EF30E0D6
:10057000309300032093FF02EBEEF2E0C08381830F
:100580009283A383B48385839683A783B08788E906
:1005900091E0928781870E94260210E00F2EFBEEE9
:1005A000CF2EF2E0DF2EF02D48C0E12EFF24F70120
:1005B000EE0FFF1FC701880F991F880F991F880F23
:1005C000991FE80FF91FEE0DFF1DEC0DFD1D858134
:1005D0009681A781B085418152816381748184179E
:1005E0009507A607B70758F0EF010184F285E02DC3
:1005F0008881099588831D821E821F821886970133
:10060000220F331FC701880F991F880F991F880F6A
:10061000991F820F931F8E0D9F1DF601E80FF91F82
:1006200045815681678170854F5F5F4F6F4F7F4F68
:1006300045835683678370871F5F123008F4B5CFF8
:100640008091EA028823E1F31092EA0210E0F5CFEC
:04065000F894FFCF4C
:060654000301000000009C
:00000001FF
