:100000000C942A000C9447000C9447000C94470071
:100010000C9447000C9447000C9447000C94470044
:100020000C9447000C9447000C9492000C944700E9
:100030000C9447000C9447000C9447000C94470024
:100040000C9447000C9447000C9447000C94470014
:100050000C94470011241FBECFE5D8E0DEBFCDBF12
:1000600010E0A0E6B0E0E6E8F6E002C005900D92F0
:10007000A436B107D9F710E0A4E6B0E001C01D92A4
:10008000AA36B107E1F70E94DD000C9441030C94FD
:100090000000DC01CB018093600090936100A0938D
:1000A0006200B09363008093640090936500A09316
:1000B0006600B09367000895DC01CB01AC01BD017F
:1000C000440F551F661F771F440F551F661F771F6C
:1000D000840F951FA61FB71FBC01CD010E944900C8
:1000E00008958BE083BF82E38CBF82E089BF12BE9C
:1000F0008091600090916100A0916200B0916300D6
:100100008093640090936500A0936600B0936700AD
:100110008FB780688FBF089513BE089581E08093E4
:10012000680008951F920F920FB60F9211242F931B
:100130003F934F935F936F937F938F939F93AF936F
:10014000BF93EF93FF938091640090916500A0911D
:100150006600B09167000197A109B109809364001E
:1001600090936500A0936600B09367000097A10587
:10017000B10591F40E948E00809160009091610021
:10018000A0916200B0916300809364009093650039
:10019000A0936600B0936700FF91EF91BF91AF917C
:1001A0009F918F917F916F915F914F913F912F918F
:1001B0000F900FBE0F901F901895CF93DF93CDB780
:1001C000DEB7CF55D0400FB6F894DEBF0FBECDBF1F
:1001D0008FEF8ABB1BBA87BB18BA84BB15BA61E024
:1001E00070E080E090E00E9449000E947100198256
:1001F0001A821B821C821E821F82188620E030E039
:10020000E8E0F0E0C901BF010E94DD02AC01C901D4
:1002100033230CF40796BC01759567957595679522
:1002200075956795CA01880F991F880F991F880FC8
:10023000991F41E050E04C0F5D1F840F951F860F02
:10024000971FDC0118961C9218972F5F3F4F2034A0
:100250003105C1F692E09B8F85E08F8F21E02AABBC
:100260009BAF93E09CAF94E09DAF8EAF86E08FAFE5
:1002700087E088AF92E081E031E008C0232F2F5F54
:100280008217E8F7973028F48F5F9F5F8823B1F7D4
:10029000FBCF2A961FAE2A9791E02B969FAF2B9704
:1002A00022E02C962FAF2C9733E02D963FAF2D9761
:1002B00044E02E964FAF2E9755E02F965FAF2F97C5
:1002C00066E060966FAF609777E061967FAF619769
:1002D00088E062968FAF629763967FAF639764966C
:1002E0006FAF649765965FAF659766964FAF6697F9
:1002F00067963FAF679768962FAF689769969FAFED
:1003000069978D83CC24DD247601C3942224332481
:10031000210123946E961FAE6E97772421E030E082
:1003200040E050E06D962CAF3DAF4EAF5FAF6D97A4
:1003300066246F961FAE6F97A0961FAEA09703C05E
:100340008981880F89838981882311F431E0398379
:10035000C201B10128E833E140E050E00E94F00220
:10036000DC01CB010097A105B10521F48B8148E0A8
:1003700084278B836E965FAD6E97503211F408E040
:1003800001C0062DD701C6019170A070B070009712
:10039000A105B105D1F4C201B10120E032E040E095
:1003A00050E00E94F002CA01B90120E130E040E0D3
:1003B00050E00E94F002DC01CB01E9E4F0E0EC0F38
:1003C000FD1FE80FF91F80818DA76D966CAD7DAD87
:1003D0008EAD9FAD6D9728E030E040E050E00E9488
:1003E000F0026B017C010F2EF7E08F2EF0E09F2EC4
:1003F000F0E0AF2EF0E0BF2EF02D861A970AA80A83
:10040000B90AF4013196EE0FFF1FEE0FFF1FEE0F3A
:10041000FF1F89E090E08C0F9D1FE80FF91F80E01F
:1004200090E0462D6F967FAD6F97A0966FADA09729
:1004300021E030E05291751610F0272F362F082E4C
:1004400002C0220F331F0A94E2F7422B0196883034
:10045000910571F765BAA0E8B0E002C0B595A7951F
:10046000CA94E2F76E96AFAF6E97E1E0F0E0EC0F62
:10047000FD1FE80DF91D808160926900562DB0E0E6
:10048000C02EDD24C094D09490E07C01E094F094E0
:10049000842F90E08C0100951095E52FF0E0C601C7
:1004A000052E02C0959587950A94E2F7880F991F4B
:1004B00082709701052E02C0359527950A94E2F7C0
:1004C000220F331F220F331F2470822BB801052EF9
:1004D00002C0759567950A94E2F76170682BCD01AB
:1004E00002C0959587955A95E2F7AC01440F551FC8
:1004F000440F551F440F551F4870462BCF010896D7
:100500009D0102C0359527958A95E2F7C90100241F
:10051000969587950794969587950794982F802DA3
:100520008074482B45BBAC9A509169005F5F509333
:100530006900583008F4B1CFAD9A6D966CAD7DADC1
:100540008EAD9FAD6D976F5F7F4F8F4F9F4F08941C
:10055000211C311C411C511C20E430E040E050E0E3
:100560000E94F002DC01CB016D968CAF9DAFAEAF67
:10057000BFAF6D9787709070A070B0700097A105A5
:10058000B10541F4872D90E0019668E070E00E948B
:10059000DD02782E809168008823E1F36092680084
:1005A00072016101D201C1019370A070B070009717
:1005B000A105B10509F4C4CEC6CE97FB092E0726C6
:1005C0000AD077FD04D027D006D000201AF4709509
:1005D00061957F4F0895F6F7909581959F4F089507
:1005E00097FB092E05260ED057FD04D028D00AD03F
:1005F000001C38F450954095309521953F4F4F4F52
:100600005F4F0895F6F790958095709561957F4FAF
:100610008F4F9F4F0895AA1BBB1B51E107C0AA1F14
:10062000BB1FA617B70710F0A61BB70B881F991F93
:100630005A95A9F780959095BC01CD010895A1E246
:100640001A2EAA1BBB1BFD010DC0AA1FBB1FEE1F4C
:10065000FF1FA217B307E407F50720F0A21BB30B97
:10066000E40BF50B661F771F881F991F1A9469F713
:1006700060957095809590959B01AC01BD01CF016F
:060680000895F894FFCF7D
:04068600010000006F
:00000001FF
