:100000000C943C000C9459000C9459000C94590029
:100010000C9459000C9459000C9459000C9406034C
:100020000C9459000C9459000C9459000C945900EC
:100030000C9459000C9459000C9459000C945900DC
:100040000C9459000C9459000C9459000C945900CC
:100050000C9459003B01630161015F016901670173
:100060006B01530165016D017F017C01790176010E
:100070007301700182016D0111241FBECFE5D8E02C
:10008000DEBFCDBF10E0A0E6B0E0E2E3FEE002C0DC
:1000900005900D92A237B107D9F726E0A2E7B0E0AC
:1000A00001C01D92AB3AB207E1F70E94A5010C9482
:1000B00017070C940000CF93DF93EC010E94FB0420
:1000C00040917200509173009E01240F351F2C3D0A
:1000D00085E0380780F44217530768F4EA01CC58EA
:1000E000DF4F30937300209372000E94B705CE015A
:1000F000DF91CF910895C0E0D0E00E94B705CE0116
:10010000DF91CF9108950895FC0103969283818336
:100110002FEF3FEF348323839683858390878783F4
:1001200010820895FC01118610860895CF93DF9305
:10013000DC01FB0111962D913C911297E9018A8116
:100140009B8193838283358324838A819B81EC0105
:100150007D836C83E9017B836A8312967C936E9323
:100160001197B187A0878C918F5F8C93DF91CF918E
:100170000895CF93DF93EB01488159814F3F2FEFD3
:10018000520761F1FC013396DC0115962D913C91EB
:100190001697D9012D913C914217530750F00280D8
:1001A000F381E02DA281B3812D913C914217530739
:1001B000B0F7A281B381BB83AA831596DC93CE935B
:1001C0001497FD83EC83D383C28399878887FC01CE
:1001D00020812F5F2083DF91CF910895DC01179656
:1001E000ED91FC911897E5CFCF93DF93FC01A281AD
:1001F000B3818481958115969C938E931497C481C5
:10020000D581BB83AA83A085B18511968D919C91E0
:1002100012978E179F0741F0118610868C9181509E
:100220008C93DF91CF9108951296DC93CE93119722
:10023000118610868C9181508C93DF91CF91089517
:100240001092AA0680E090E8892E20E4922E30E2F7
:10025000A32E40E1B42E08E014E0D2E0C1E057E064
:10026000C52E66E0D62E75E0E72EE3E0FE2E90E088
:100270008930910598F012BA8091AA0690E08930F1
:100280009105C0F01092AA0684E690E00E942B0629
:100290008091AA0690E08930910568F7FC01E65D3F
:1002A000FF4F0C94FB0692BA8091AA0690E0893029
:1002B000910540F7FC01ED5CFF4F0C94FB0612BB6F
:1002C000DBCFD2BBD9CFC2BBD7CF82BAD5CFB2BAE0
:1002D000D3CF02BBD1CFA2BACFCFC093AA06D4CF7F
:1002E000C092AA06D1CFD092AA06CECFE092AA069B
:1002F000CBCF1093AA06C8CFF092AA06C5CFD09351
:10030000AA06C2CF0093AA06BFCFAF92BF92CF92E8
:10031000DF92EF92FF920F93A12CB12CC12CD12C24
:10032000E12CF12C082F20E030E045E550E062E6BA
:1003300070E080E291E00E9409030F91FF90EF903E
:10034000DF90CF90BF90AF9008951ABA8FEF8BBB1C
:1003500081BB81E00E9485010E94140480E090E04E
:10036000089531E1FC013083319722E220833197F7
:10037000A3E3A08331976083319770833197108214
:10038000319760E8608331971082319762E0608333
:10039000319763E06083319764E06083319765E073
:1003A0006083319766E06083319767E060833197BF
:1003B00068E06083319769E06083319760E1608332
:1003C00031973083319732E13083319733E1308395
:1003D000319734E13083319735E13083319736E11D
:1003E0003083319737E13083319738E1308331976B
:1003F00039E13083319730E23083319731E2308315
:1004000031972083319723E22083319740833197BE
:100410005083319726E22083319727E2208331975A
:1004200028E22083319729E22083319720E320833B
:10043000319721E32083869708951BBC8CE78ABD02
:100440008BE08EBD89B7806189BFA091A806B0916D
:10045000A906CD91CDBFDD91DEBFFF91EF91DF9178
:10046000CF91BF91AF919F918F917F916F915F914C
:100470004F913F912F911F910F91FF90EF90DF903F
:10048000CF90BF90AF909F908F907F906F905F9034
:100490004F903F902F901F900F900FBE0F90089598
:1004A00081E008950F920FB6F8940F921F921124D5
:1004B0002F923F924F925F926F927F928F929F9274
:1004C000AF92BF92CF92DF92EF92FF920F931F9362
:1004D0002F933F934F935F936F937F938F939F934C
:1004E000AF93BF93CF93DF93EF93FF93A091A806B1
:1004F000B091A9060DB60D920EB60D920E94B106EE
:10050000A091A806B091A906CD91CDBFDD91DEBF27
:10051000FF91EF91DF91CF91BF91AF919F918F911B
:100520007F916F915F914F913F912F911F910F910B
:10053000FF90EF90DF90CF90BF90AF909F908F9003
:100540007F906F905F904F903F902F901F900F90F3
:100550000FBE0F9008950F920FB6F8940F921F924E
:1005600011242F923F924F925F926F927F928F92BF
:100570009F92AF92BF92CF92DF92EF92FF920F9332
:100580001F932F933F934F935F936F937F938F931B
:100590009F93AF93BF93CF93DF93EF93FF93A0917C
:1005A000A806B091A9060DB60D920EB60D920E9446
:1005B00001050E94B106A091A806B091A906CD91AF
:1005C000CDBFDD91DEBFFF91EF91DF91CF91BF9164
:1005D000AF919F918F917F916F915F914F913F91DB
:1005E0002F911F910F91FF90EF90DF90CF90BF90D0
:1005F000AF909F908F907F906F905F904F903F90C3
:100600002F901F900F900FBE0F9008950E94AB0285
:1006100018955F926F927F928F929F92AF92BF9246
:10062000CF92DF92EF92FF920F931F93CF93DF93BE
:100630005C014B01EA013901502E81E290E00E94F9
:100640005B008C01009709F4EDC0C114D10409F4DA
:10065000DDC0FC01D08EC78AC601AE0165EA70E03C
:100660000E9401072197F801C788D08CCC0EDD1EAF
:1006700048E050E0B401C80149960E940807F8011B
:1006800010A2952CF3E0F51508F483C0F801968AC2
:10069000E8012296CE010E949200C8010C960E94A9
:1006A0009200F8011187008784E090E08919910990
:1006B00095878487138B028BA301B501C6010E9425
:1006C000B101F80191838083E114F10419F0F7017D
:1006D000118300830FB6F8940F9280915A068F5FB2
:1006E00080935A068091A8069091A906892B09F457
:1006F00057C08091550681110BC0E091A806F0917A
:10070000A9068689581620F01093A9060093A8061A
:10071000F801268980915706821710F42093570616
:10072000809150068F5F8093500680915606821705
:1007300068F130E0C901880F991F880F991F880F51
:10074000991F820F931FBE018C57994F0E949600EC
:100750000F900FBE80915506882339F0E091A806CE
:10076000F091A90686898515B8F081E0DF91CF91D7
:100770001F910F91FF90EF90DF90CF90BF90AF90BF
:100780009F908F907F906F905F9008952093560672
:10079000D0CF53E0952E7ACF0E94520281E0E6CF6F
:1007A0001093A9060093A80680915A06813009F09B
:1007B000AFCF84E896E00E9484008DE896E00E9426
:1007C000840086E996E00E9484008FE996E00E940A
:1007D00084008BE796E00E94840082E796E00E9406
:1007E000840085E696E00E9484008CE596E00E94F5
:1007F00084008BE796E0909371068093700682E701
:1008000096E090936F0680936E0682CFCE010E9491
:100810005B00F801908F878B009709F01ECFC8010D
:100820000E9483008FEFA2CFEF92FF920F931F934E
:10083000CF93DF9381E290E00E945B00EC01009790
:1008400009F490C085E590E00E945B00988F8F8B43
:10085000009709F4C7C045E550E065EA70E00E94E2
:100860000107EF88F88C84E5E80EF11C48E050E0C1
:100870006DE670E0CE0149960E94080718A21E8A14
:100880008E010E5F1F4FC8010E949200CE010C9690
:100890000E949200D987C88784E090E09D878C876A
:1008A000DB8BCA8B40E050E06AE776E0C7010E942C
:1008B000B101998388830FB6F8940F9280915A06FC
:1008C0008F5F80935A068091A8069091A906892B84
:1008D00009F452C08091550681110BC0E091A80621
:1008E000F091A9068689811104C0D093A906C0930E
:1008F000A8062E8980915706821710F42093570678
:10090000809150068F5F8093500680915606821723
:1009100080F130E0C901880F991F880F991F880F57
:10092000991F820F931FB8018C57994F0E94960010
:100930000F900FBE80915506882321F08091A80664
:100940009091A906F89481E080935506109259067B
:1009500010925806DF91CF911F910F91FF90EF9069
:100960000C941D02DF91CF911F910F91FF90EF909A
:10097000089520935606CDCFD093A906C093A8061C
:1009800080915A06813009F0B4CF84E896E00E9445
:1009900084008DE896E00E94840086E996E00E943B
:1009A00084008FE996E00E9484008BE796E00E9425
:1009B000840082E796E00E94840085E696E00E942B
:1009C00084008CE596E00E9484008BE796E090938B
:1009D00071068093700682E796E090936F0680938D
:1009E0006E0687CFCE01DF91CF911F910F91FF90BF
:1009F000EF900C948300809154068F5F809354068F
:100A000008950F931F93CF93DF9380915406811124
:100A100065C08091580690915906019690935906A9
:100A2000809358068091580690915906892B09F4B5
:100A30005FC08091600090916100209158063091D4
:100A4000590628173907C0F54EC0E0917006F0919D
:100A500071060580F681E02DC681D7818A819B8150
:100A600020915806309159062817390708F476C0A6
:100A70008E010E5F1F4FC8010E94F4008C899D8972
:100A8000892B21F0CE010C960E94F4002E898091D2
:100A90005606821710F42093560630E0C901880FDD
:100AA000991F880F991F880F991F820F931FB801F4
:100AB0008C57994F0E949600E0917006F091710654
:100AC00080818111C2CF8FEF9FEF9093610080935F
:100AD0006000DF91CF911F910F910895809153068F
:100AE0008F5F80935306DF91CF911F910F910895EF
:100AF000809170069091710620916E0630916F067C
:100B0000309371062093700690936F0680936E0663
:100B1000809151068F5F80935106E0917006F091AD
:100B200071068081811107C08FEF9FEF9093610064
:100B30008093600082CFE0917006F091710605808D
:100B4000F681E02D0680F781E02D328123813093FC
:100B5000600020936100832F922F6FCF90936100EC
:100B600080936000DF91CF911F910F910895FF92C4
:100B70000F931F93CF93DF930FB6F8940F9280914A
:100B8000540681508093540680915406811149C0C7
:100B900080915A06882309F444C0F12C809165069F
:100BA0008823A1F1E0916A06F0916B06C681D78196
:100BB000CE010C960E94F4008E010E5F1F4FC801FB
:100BC0000E94F4002E8980915606821710F420931B
:100BD000560630E0C901880F991F880F991F880FAA
:100BE000991F820F931FB8018C57994F0E9496004E
:100BF000E091A806F091A9069E898689981770F25F
:100C0000FF24F394809165068111CCCF8091530627
:100C1000811117C081E0F816C1F080915206813031
:100C2000A1F080E00F900FBEDF91CF911F910F9147
:100C3000FF9008950E940105809153068150809392
:100C40005306809153068111F5CF109252060E94EF
:100C5000520281E0E7CFCF93DF93009729F40E94FF
:100C60005202DF91CF910895209154062F5F209377
:100C70005406C0915806D0915906C80FD91F8091CB
:100C8000A8069091A90602960E94F400E091A80699
:100C9000F091A906D383C28380915806909159069A
:100CA0006091A8067091A906C817D907D0F0809165
:100CB0007006909171066E5F7F4F0E94B90080911F
:100CC000600090916100C817D90720F4D0936100AB
:100CD000C09360000E94B705882309F2DF91CF918D
:100CE000089580916E0690916F066E5F7F4F0E940F
:100CF000B900F0CF80915B06811107C08091840616
:100D00008230C0F30E945202F5CF809154068F5F6B
:100D100080935406C0915C060E94B705CC2371F302
:100D20000FB6F8940F92E0916106F0916206C681C9
:100D3000D781CE0102960E94F40080915A0681501C
:100D400080935A0680915B06815080935B060F90DA
:100D50000FBE8F89988D0E948300CE010E94830070
:100D6000CDCF80915406882331F03AC08091560649
:100D70008150809356068091560690E0FC01EE0F5C
:100D8000FF1FEE0FFF1FEE0FFF1FE80FF91FEC57BD
:100D9000F94F8081882351F38091560690E0FC0141
:100DA000EE0FFF1FEE0FFF1FEE0FFF1FE80FF91FE3
:100DB000EC57F94FA181B28112960D90BC91A02DF4
:100DC000B283A183CF010396A817B90769F01696DD
:100DD0008D919C9117979093A9068093A8060895EA
:100DE00081E080935206089512960D90BC91A02D3B
:100DF000B283A183ECCFEE0FFF1F0590F491E02D9D
:100E00000994DC0101C06D9341505040E0F7089512
:100E1000FB01DC014150504048F001900D92002050
:100E2000C9F701C01D9241505040E0F70895F89471
:020E3000FFCFF2
:100E3200FFFF4C65645365635461736B0049444C16
:020E4200450069
:00000001FF
