S01000004E45535F746573742E737265630F
S11300000C942A000C9447000C9447000C9447006D
S11300100C9447000C9447000C9447000C94470040
S11300200C9447000C9447000C946A000C9447000D
S11300300C9447000C9447000C9447000C94470020
S11300400C9447000C9447000C9447000C94470010
S11300500C94470011241FBECFE5D8E0DEBFCDBF0E
S113006010E0A0E6B0E0E6EFF3E002C005900D92E8
S1130070A038B107D9F710E0A0E8B0E001C01D92A4
S1130080AE38B107E1F70E94C9010C94F9010C9450
S113009000008BE083BF89E18CBF82E089BF12BE80
S11300A080916C0090916D00A0916E00B0916F00F2
S11300B08093820090938300A0938400B093850082
S11300C08FB780688FBF089513BE089581E0809331
S11300D0860008951F920F920FB60F9211242F934A
S11300E03F934F935F936F937F938F939F93AF93BC
S11300F0BF93EF93FF938091820090918300A0912E
S11301008400B09185000197A109B1098093820010
S113011090938300A0938400B09385000097A10579
S1130120B10591F40E94660080916C0090916D007D
S1130130A0916E00B0916F00809382009093830031
S1130140A0938400B0938500FF91EF91BF91AF918C
S11301509F918F917F916F915F914F913F912F91DB
S11301600F900FBE0F901F901895DC01CB01809368
S11301706C0090936D00A0936E00B0936F00809319
S1130180820090938300A0938400B0938500089527
S1130190E82FF0E0EF70F070E059FF4F8081809518
S11301A085BB089580918C00813079F0813030F0E6
S11301B010928C0081E080938900089581E08093FF
S11301C08C0082E080938900089582E080938C0003
S11301D084E080938900089580918700882319F032
S11301E0813041F404C081E0809387000BC01092F9
S11301F0870005C0882319F0813039F403C01092B8
S11302008100089588E0809381000895CA9906C00A
S11302109091800080E1892780938000089599B3AC
S11302209095937080918800813039F08130E8F0A6
S1130230823059F0833071F510C0992311F083E0B6
S113024001C080E08093880025C0992311F083E0E9
S113025001C080E0809388001DC0992311F083E0E1
S113026001C080E08093880015C0913039F091304E
S1130270C8F1923039F0933069F408C081E080937A
S113028088000FC082E0809388001CC083E08093C4
S11302908800089580918800813019F0823011F52A
S11302A011C080916200909163008A3F9105D0F45F
S11302B08091620090916300019690936300809313
S11302C062000895809162009091630082309105EC
S11302D048F08091620090916300019790936300CD
S11302E08093620008959B016115710539F00E94A5
S11302F0E501682F792FC9010E9473010895809147
S11303008A008230A9F0833028F4882341F08130B8
S113031021F50AC0833081F08430F9F41BC081E0F8
S113032080938A00D998089583E080938A0018C046
S113033083E080938A0014C080918B008730F9F4A5
S113034084E080938A0080918D0085BB8FEF809339
S11303508D00089510928A000EC010928A000BC07E
S113036081E0CA9980E090918D00990F892B809348
S11303708D00D8980895D99A10928B00089582E040
S113038080938A00D89A80918B008F5F80938B0032
S1130390089583E08ABB8CEF8BBBCFEFC7BB18BA41
S11303A0C4BBC5BB61E070E080E090E00E94B50092
S11303B00E944900C0938A000E947F0180918600B8
S11303C08823E1F310928600F7CFAA1BBB1B51E1EF
S11303D007C0AA1FBB1FA617B70710F0A61BB70BB1
S11303E0881F991F5A95A9F780959095BC01CD0156
S10903F00895F894FFCF0C
S11303F602000200E8032C01E8032C0101000000BE
S11304067E483D6D4B67774C7F6F5F733679371740
S9030000FC
