:100000000C942A000C9447000C9447000C94470071
:100010000C9447000C9447000C9447000C94470044
:100020000C9447000C9447000C9447000C94470034
:100030000C9447000C9447000C9447000C94470024
:100040000C9447000C9447000C9447000C94470014
:100050000C94470011241FBECFE5D8E0DEBFCDBF12
:1000600010E0A0E6B0E0EAEDF1E002C005900D92EC
:10007000A036B107D9F710E0A0E6B0E001C01D92AC
:10008000A036B107E1F70E9484000C94EB000C94B9
:1000900000008FEF87BB81E58DB908958FB9779BFD
:1000A000FECF08951F93CF93DF93C82F162FD42F21
:1000B000822FC198C19AC09AC0980E944E00812F89
:1000C00080950E944E008D2F80950E944E00C09515
:1000D000CBBBC09AC098DF91CF911F91089580B794
:1000E000886080BF17B886B1866886B9089597B1D1
:1000F0008770987F982B97B93798379A369A349BA0
:10010000FECF84B195B10895CF93DF9300D0CDB7E2
:10011000DEB71ABA1BBA1FEF17BB18BA14BA15BB51
:100120000E9449000E946F001A82198280E00E949A
:1001300077009A83898381E00E9477009A8389837C
:1001400082E00E9477009A83898383E00E9477008F
:100150009A83898384E00E9477009A83898385E06B
:100160000E9477009A83898386E00E9477009A83B1
:10017000898387E00E9477009A8389831ABB1BBB1F
:100180001ABA1BBA80E064E044E024E00E94520006
:1001900082E00E9477009A83898380E064E044E0F3
:1001A00024E00E94520082E00E9477009A838983B3
:1001B0001ABA1BBA80E00E9477009A8389831BBB1E
:1001C0001ABB89819A8149815A8180E0692F20E890
:0A01D0000E945200EDCFF894FFCF1B
:00000001FF
