S01B000064706173693030315F6C6162385F70617274342E7372656357
S11300000C942A000C9447000C9447000C9447006D
S11300100C9447000C9447000C9447000C94470040
S11300200C9447000C9447000C94E3000C94470094
S11300300C9447000C9447000C9447000C94470020
S11300400C9447000C9447000C9447000C94470010
S11300500C94470011241FBECFE5D8E0DEBFCDBF0E
S113006010E0A0E6B0E0EEEEF9E002C005900D92DB
S1130070A439B107D9F710E0A4E9B0E001C01D929A
S1130080A63DB107E1F70E9483030C94F5040C9498
S113009000008230A9F0833030F4882309F448C08A
S11300A08130E1F408C0843081F0843008F442C027
S11300B08530A1F40EC0909196009923E9F5089536
S11300C0909197009923A9F115C01092950085E0AD
S11300D0089590919700992361F530C0109295008E
S11300E0AAEBB0E0E0E6F0E081E101900D928150EE
S11300F0E1F708950E94AB046AE070E00E940D04E9
S113010080939E002091970020939F00EAEBF0E0FB
S1130110CF0140962193E817F907E1F780E1809336
S1130120A0001092CA0081E08093950083E00895B6
S113013081E0089584E0089582E0089581E00895BF
S1130140442351F041E050E09A0102C0220F331FD2
S11301506A95E2F7822B089521E030E0A90102C0FC
S1130160440F551F6A95E2F7BA01609586230895F6
S113017021E030E0A90102C0440F551F6A95E2F75F
S1130180842308958BE083BF8DE78CBF82E089BF11
S113019012BE80918B0090918C00A0918D00B09143
S11301A08E008093980090939900A0939A00B09346
S11301B09B008FB780688FBF089513BE089581E0B8
S11301C080939C0008951F920F920FB60F921124F2
S11301D02F933F934F935F936F937F938F939F934B
S11301E0AF93BF93EF93FF93809198009091990000
S11301F0A0919A00B0919B000197A109B109809345
S1130200980090939900A0939A00B0939B00009754
S1130210A105B10591F40E94DF0080918B009091BB
S11302208C00A0918D00B0918E00809398009093E3
S11302309900A0939A00B0939B00FF91EF91BF9116
S1130240AF919F918F917F916F915F914F913F916A
S11302502F910F900FBE0F901F901895DC01CB01CA
S113026080938B0090938C00A0938D00B0938E00AC
S11302708093980090939900A0939A00B0939B0068
S113028008958FEE85BB000083B360E00E94B80040
S1130290882309F46DC083B361E00E94B800882309
S11302A009F468C083B362E00E94B800882309F4AB
S11302B063C083B363E00E94B800882309F45EC07E
S11302C08FED85BB000083B360E00E94B8008823F3
S11302D009F456C083B361E00E94B800882309F48E
S11302E051C083B362E00E94B800882309F44CC073
S11302F083B363E00E94B800882309F447C08FEBFE
S113030085BB000083B360E00E94B800882309F431
S11303103FC083B361E00E94B8008823D9F183B35E
S113032062E00E94B8008823B9F183B363E00E94BD
S1130330B800882399F18FE785BB000083B360E0A0
S11303400E94B800882361F183B361E00E94B80081
S1130350882341F183B362E00E94B800882321F12D
S113036083B363E00E94B800882301F584E4089510
S113037081E3089584E3089587E308958AE2089564
S113038082E3089585E3089588E3089580E308955A
S113039083E3089586E3089589E3089583E2089545
S11303A081E4089582E4089583E4089580E0089543
S11303B0CF93882319F0813079F407C0C1E080918C
S11303C0A100882351F4C0E008C0C1E08091A100DD
S11303D0882319F4C0E001C0C0E0CC2319F0C13077
S11303E0D9F414C00E944101809397008093A10026
S11303F08A3291F49091780081E089278093780083
S113040089B380958F708093940006C00E94410147
S11304108093A100109297008C2FCF9108951F9381
S1130420CF93DF93182FC0917B00D0917C008881FB
S113043063E040E00E94A0008883E0917D00F09199
S11304407E001083C0917B00D0917C00888164E0A1
S113045041E00E94A0008883DF91CF911F9108950D
S1130460CF93DF93C0917B00D0917C00888164E0BE
S113047040E00E94A0008883DF91CF9108951F93EC
S1130480CF93DF93182FC0917B00D0917C0088819B
S113049063E041E00E94A0008883E0917D00F09138
S11304A07E001083C0917B00D0917C00888164E041
S11304B041E00E94A0008883DF91CF911F910895AD
S11304C0CF93DF93C0917B00D0917C00888164E05E
S11304D040E00E94A0008883DF91CF91089580318D
S11304E020F480580E940F02089581540E940F0244
S11304F00895CF93C82F8530C1F1863080F48230BF
S113050041F1833030F48823D1F0813009F064C0A4
S113051019C0833011F1843009F05EC022C08830E4
S1130520F1F1893030F4863019F1873009F054C084
S113053031C08930C1F18A3009F04EC047C01092F1
S11305409D00A2C080919D00843608F49DC0C2E045
S113055069C00E943002C3E069C00E943002C4E056
S113056069C00E943002C5E069C00E9430028EC09A
S113057080919500882309F489C0809178008823AC
S113058021F010929600C7E061C01092960010927C
S11305909D0078C00E94300210929D0073C00E949A
S11305A03002C9E063C080917800882349F08091CB
S11305B09D00803138F48F5F80939D00C8E003C0B4
S11305C0CAE001C0CAE00E94600207C080919500A1
S11305D0882309F45BC053C0C0E0C43059F1C5306E
S11305E050F4C130C9F0C130A0F0C230D9F0C330EA
S11305F009F045C01BC0C73049F1C83028F4C530E4
S1130600E9F0C630E1F51EC0C83021F1C930B9F5B2
S11306102DC01092960033C080919D008F5F80930F
S11306209D002DC088E30E940F0229C086E00E942D
S11306300F0225C08FE00E940F0221C081E00E94BA
S11306400F021DC081E08093960019C081E00E94D2
S11306500F0215C080917800882319F080919D00C5
S113066002C0809194000E946F0209C080919D0095
S1130670EAEBF0E0E80FF11D80810E943F028C2F2D
S1130680CF910895C8E0E6CFC1E0C6CFC6E0DACF87
S11306900F931F93CF93DF93F62FE72F022F132F80
S11306A0D42FC52F04C00B2F1A2FD32FC22F6F2F77
S11306B07E2F202F312F4D2F5C2F0E942004AB0161
S11306C0BC01F02FE12F8D2F9C2FB42FA52F362F97
S11306D0272F411551056105710529F7602F712FE9
S11306E0DF91CF911F910F910895FC018FEF8083CB
S11306F041835283638374834583568367837087FE
S1130700328721870895809172009091730041E0AF
S113071050E060E070E028ED31E00E9475038091C4
S113072074009091750041E050E060E070E029E7CA
S113073032E00E947503809176009091770041E049
S113074050E060E070E029E430E00E9475038FEF30
S113075087BB18BA90EF94BB9FE095BB81BB1ABAD4
S11307608BBB61E070E080E090E00E942E010E946B
S1130770C200C0E0D0E0CC24DD240F2EF2E7EF2E3F
S1130780F0E0FF2EF02D3DC0FE01EE0FFF1FEE0D39
S1130790FF1D00811181F80185819681A781B085B3
S11307A0418152816381748184179507A607B70735
S11307B0A0F00184F285E02DD8018C910995F8010F
S11307C08083FE01EE0FFF1FEE0DFF1D0190F081EF
S11307D0E02D1582168217821086FE01EE0FFF1F90
S11307E0EE0DFF1D0190F081E02D85819681A7819A
S11307F0B0850196A11DB11D85839683A783B0871B
S11308002196C330D1050CF4BFCF80919C0088237E
S1130810E1F310929C00E601F4CF97FB092E072622
S11308200AD077FD04D02ED006D000201AF470959B
S113083061957F4F0895F6F7909581959F4F0895A0
S1130840A1E21A2EAA1BBB1BFD010DC0AA1FBB1FD0
S1130850EE1FFF1FA217B307E407F50720F0A21B42
S1130860B30BE40BF50B661F771F881F991F1A94AF
S113087069F760957095809590959B01AC01BD01D9
S1130880CF010895AA1BBB1B51E107C0AA1FBB1FC0
S1130890A617B70710F0A61BB70B881F991F5A9508
S11308A0A9F780959095BC01CD0108958F929F92F0
S11308B0AF92BF92CF92DF92EF92FF92CF93DF93EA
S11308C0EC0188819981AA81BB810097A105B105BA
S11308D021F484E299EDABE5B7E0BC01CD012DE153
S11308E033EF41E050E00E94DA0449015A0127EA5B
S11308F031E440E050E00E94BB046B017C01C5017F
S1130900B4012CEE34EF4FEF5FEF0E94BB04DC0127
S1130910CB01C80ED91EEA1EFB1EF7FE08C08FEFDE
S11309209FEFAFEFBFE7C80ED91EEA1EFB1EC882B9
S1130930D982EA82FB82C6019F77DF91CF91FF9033
S1130940EF90DF90CF90BF90AF909F908F900895DD
S11309500E94560408958FE890E00E94560408957A
S1130960A0E0B0E080938F0090939000A09391005A
S1130970B09392000895629FD001739FF001829F0B
S1130980E00DF11D649FE00DF11D929FF00D839F1A
S1130990F00D749FF00D659FF00D9927729FB00DB7
S11309A0E11DF91F639FB00DE11DF91FBD01CF01CA
S11309B01124089597FB092E05260ED057FD04D067
S11309C03FDF0AD0001C38F45095409530952195AE
S11309D03F4F4F4F5F4F0895F6F790958095709570
S11109E061957F4F8F4F9F4F0895F894FFCF7E
S11309EE31323334353637383930313233343536B3
S11309FE0003A300AE00CB00010403380032000252
S1130A0E000200E8032C01E8032C010100000001A0
S1070A1E00000000D0
S9030000FC
