:100000000C942A000C9447000C9447000C94470071
:100010000C9447000C9447000C9447000C94470044
:100020000C9447000C9447000C945C030C9447001C
:100030000C9447000C9447000C9447000C94470024
:100040000C9447000C9447000C9447000C94470014
:100050000C94470011241FBECFE5D8E0DEBFCDBF12
:1000600012E0A0E6B0E0E8E5FAE002C005900D92EB
:10007000AC38B107D9F713E0ACE8B2E001C01D928B
:10008000AF39B107E1F70E94A9030C942A050C943B
:1000900000005F926F927F928F929F92AF92BF9279
:1000A000CF92DF92EF92FF920F931F93CF93DF9344
:1000B00080919102883009F0CDC010929102809118
:1000C000920290E0019668E070E00E94C60480937E
:1000D000920287E080939302C1C0B62C472F50E074
:1000E0006C2DCA01880F991F840F951F8A0F9B1FC3
:1000F000800F911F9E01FC018081A81608F09401D9
:10010000C901062E02C0880F991F0A94E2F7582AE7
:10011000CA01880F991F840F951F8A0F9B1F800F9C
:10012000911F9E01FC018181A81608F09401C9016C
:10013000062E02C0880F991F0A94E2F7F82ACA0116
:10014000880F991F840F951F8A0F9B1F800F911F87
:100150009E01FC018281A81608F09401C90102C029
:10016000880F991F6A95E2F7E82A0894C11CD11CF0
:10017000715008F0B2CF1092950281E090E002C079
:10018000880F991FBA94E2F715BA1092940260E0B2
:10019000052D10E000951095CF2DD0E0C095D0959D
:1001A000AE2DB0E0A095B095E82FF0E09801062EB6
:1001B00002C0359527950A94E2F72170822F80645A
:1001C000AE01062E02C0559547950A94E2F79A01B2
:1001D000220F331F2270482F422B9D01062E02C092
:1001E000359527950A94E2F7C901880F991F880F62
:1001F000991F8470842B9F0102C0359527956A95BD
:10020000E2F7B901660F771F660F771F660F771F3A
:100210006870682B65BBAC9A609194026F5F6093C5
:100220009402683018F2AD9A809191028F5F8093AA
:10023000910280E0DF91CF911F910F91FF90EF909D
:10024000DF90CF90BF90AF909F908F907F906F90F6
:100250005F9008958095877080939302A09092029A
:1002600077E0CC24DD24EE24FF245524682E772467
:100270000FED12E0D301AA0FBB1FA60DB71DAA0FE9
:10028000BB1FAA0FBB1FAA0FBB1FC1E0D0E0882471
:10029000992423CF8F929F92AF92BF92CF92DF92F9
:1002A000EF92FF921F93CF93DF93C0909602D0906E
:1002B0009702E0909802F09099020894C11CD11C1A
:1002C000E11CF11CC0929602D0929702E092980233
:1002D000F0929902C701B60128E833E140E050E00E
:1002E0000E94FB04DC01CB010097A105B10509F0D8
:1002F00091C0C701B60128E833E140E050E00E9418
:10030000FB0469017A0120939A0230939B02409387
:100310009C0250939D0220E030E040E050E01AC083
:100320000196FD0132976081FD0135976083FD01E3
:1003300031976081FD01349760836C91FD013397A3
:10034000608313968730910559F72F5F3F4F283010
:10035000310579F0D901AA0FBB1FA20FB31FAA0F55
:10036000BB1FAA0FBB1FAA0FBB1FAC51BD4FCA01B9
:10037000D7CFC701B601695F7F4F8F4F9F4F21E7EE
:1003800030E040E050E00E94FB04DC01CB01FC01C6
:10039000E059FE4FA080BB24FC01E850FF4F808055
:1003A000992480589F4FFC01C080DD2446EF52E025
:1003B000E0E0F0E0EE24FF246894E7F861E010E06C
:1003C00097010E2E02C0359527950A94E2F7DA01BF
:1003D000EA012297C9018A219B21762F009709F40F
:1003E000712F7883ED012197C90188219921762FFA
:1003F000009709F4712F7883C9018C219D21262F44
:10040000009709F4212F2C933196485E5F4FE83016
:10041000F105B1F680E0DF91CF911F91FF90EF9051
:10042000DF90CF90BF90AF909F908F900895CF9224
:10043000DF92EF92FF920F931F93813009F45EC019
:10044000813038F18F3F09F0CCC080919E029091AD
:100450009F02FC01EE0FFF1FE80FF91FE75CFD4F45
:1004600080819181A0E0B0E08093A2029093A302EA
:10047000A093A402B093A502828190E0A0E0B0E036
:100480008093A6029093A702A093A802B093A9021A
:10049000B0C0C090AA02D090AB02E090AC02F09045
:1004A000AD026091A6027091A7028091A80290917E
:1004B000A90228E532E040E050E00E94A704DC01F8
:1004C000CB01C816D906EA06FB0670F40894C11CD5
:1004D000D11CE11CF11CC092AA02D092AB02E092A6
:1004E000AC02F092AD0285C01092AA021092AB024B
:1004F0001092AC021092AD0281E074C04091AA0249
:100500005091AB026091AC027091AD02483C510534
:100510006105710568F44F5F5F4F6F4F7F4F4093E8
:10052000AA025093AB026093AC027093AD025AC022
:1005300080919E0290919F02A091A002B091A10291
:10054000BC01CD016F5F7F4F8F4F9F4F2AE130E09D
:1005500040E050E00E94D90460939E0270939F0295
:100560008093A0029093A1021092AA021092AB0273
:100570001092AC021092AD02262F372F89E392E041
:10058000A901440F551F240F351FFC01E20FF31F73
:100590000081118120E030E00093A2021093A302B9
:1005A0002093A4023093A502262F372FA901440FD0
:1005B000551F240F351F820F931FFC01828190E08D
:1005C000A0E0B0E08093A6029093A702A093A802B7
:1005D000B093A9020EC09BB381E089278BBB80E05A
:1005E00001C08FEF1F910F91FF90EF90DF90CF90A0
:1005F00008956091AA027091AB028091AC02909133
:10060000AD022091A2023091A3024091A402509128
:10061000A5020E94D904DC01CB010097A105B10518
:10062000D1F280E0DFCFDC01CB0180938702909391
:100630008802A0938902B0938A0280938C029093DF
:100640008D02A0938E02B0938F020895DC01CB013E
:10065000AC01BD01440F551F661F771F440F551F86
:10066000661F771F840F951FA61FB71FBC01CD0102
:100670000E94130308958BE083BF82E38CBF82E066
:1006800089BF12BE8091870290918802A091890251
:10069000B0918A0280938C0290938D02A0938E0277
:1006A000B0938F028FB780688FBF089513BE0895EF
:1006B00081E08093900208951F920F920FB60F92DF
:1006C00011242F933F934F935F936F937F938F9357
:1006D0009F93AF93BF93EF93FF9380918C02909180
:1006E0008D02A0918E02B0918F020197A109B109EC
:1006F00080938C0290938D02A0938E02B0938F0210
:100700000097A105B10591F40E94580380918702DA
:1007100090918802A0918902B0918A0280938C0204
:1007200090938D02A0938E02B0938F02FF91EF9170
:10073000BF91AF919F918F917F916F915F914F91F9
:100740003F912F910F900FBE0F901F90189580E052
:1007500008954FEF4093AE0281E090E0A0E0B0E05A
:100760008093AF029093B002A093B102B093B20213
:100770008093B3029093B402A093B502B093B602F3
:1007800029E430E03093B8022093B7024093B902D5
:100790008093BA029093BB02A093BC02B093BD02B7
:1007A0008093BE029093BF02A093C002B093C10297
:1007B0002AE431E03093C3022093C2024093C40282
:1007C0008093C5029093C602A093C702B093C8025B
:1007D0008093C9029093CA02A093CB02B093CC023B
:1007E00087E192E09093CE028093CD024ABB1BBA80
:1007F00047BB18BA44BB15BA61E070E080E090E0F6
:100800000E9413030E943B0380E090E00BC0422F44
:10081000477040832F5F33963217C9F701968830AF
:10082000910589F0282FFC01EE0FFF1FE80FF91F3B
:10083000EE0FFF1FEE0FFF1FEE0FFF1FE152FD4FE8
:10084000382F385FE4CF1092CF0281E08093D0023E
:1008500092E09093D10223E02093D20234E03093CF
:10086000D30245E04093D40256E05093D50267E0AE
:100870006093D60278E07093D7026093D8025093C9
:10088000D9024093DA023093DB022093DC0290938A
:10089000DD028093DE02FF240F2EFEEACF2EF2E06F
:1008A000DF2EF02D48C00F2D10E0F801EE0FFF1FD6
:1008B000C801880F991F880F991F880F991FE80F8B
:1008C000F91FE00FF11FEC0DFD1D85819681A781B9
:1008D000B085418152816381748184179507A60791
:1008E000B70758F0EF010184F285E02D8881099562
:1008F00088831D821E821F8218869801220F331F53
:10090000C801880F991F880F991F880F991F820FA0
:10091000931F800F911FF601E80FF91F4581568143
:10092000678170854F5F5F4F6F4F7F4F4583568361
:1009300067837087F39482E08F1508F0B4CF8091BD
:1009400090028823E1F310929002FF24F4CF629F7B
:10095000D001739FF001829FE00DF11D649FE00DB7
:10096000F11D929FF00D839FF00D749FF00D659F18
:10097000F00D9927729FB00DE11DF91F639FB00D17
:10098000E11DF91FBD01CF011124089597FB092E28
:1009900007260AD077FD04D049D006D000201AF4EB
:1009A000709561957F4F0895F6F7909581959F4FCB
:1009B0000895A1E21A2EAA1BBB1BFD010DC0AA1FA0
:1009C000BB1FEE1FFF1FA217B307E407F50720F0B8
:1009D000A21BB30BE40BF50B661F771F881F991F33
:1009E0001A9469F760957095809590959B01AC017C
:1009F000BD01CF01089597FB092E05260ED057FDA6
:100A000004D0D7DF0AD0001C38F4509540953095BB
:100A100021953F4F4F4F5F4F0895F6F79095809582
:100A2000709561957F4F8F4F9F4F0895AA1BBB1BF9
:100A300051E107C0AA1FBB1FA617B70710F0A61BDE
:100A4000B70B881F991F5A95A9F780959095BC01FF
:080A5000CD010895F894FFCFD9
:100A58000405060607070808080808070706060524
:100A68000403020201010000000000010102020368
:100A7800000040C04000000000000000000000002E
:100A880080C04000000000000000000000000000DE
:100A98000000000040C0E04000000000000000002E
:100AA800000000000000000040C0C08000000000FE
:100AB800000000000000000000000000000000002E
:100AC8000040C040000000000000000000000000DE
:100AD800000000000000000000000000000040E0EE
:100AE800E040000000000000010141C1410101098E
:100AF800010929090101010187C74101010F0F01FE
:100B0800010F0F01010F0F010109010141C1E0406F
:100B18000105051111111101010000001115010154
:100B280049C9C181090129010901012121010129BD
:100B380021010103070F010F0743C14103070F0FED
:100B4800000F070301070701010909010103070F46
:100B58001F010101010141E1E14F1F191F0F0101AF
:100B6800000040C0400000080008280800000000FD
:100B780080C04000000000000000000000000000ED
:100B88000008000040C0E0400004041010101000ED
:100B9800000000001014000048C8C08008002800A9
:100BA800080000202000002820000002060E000E89
:100BB8000642C04002060E0E000E060200000000AB
:100BC800000808000002060E1E000000000040E0B9
:100BD800E04E1E181E0E000000000000000000007D
:100BE80000000000000000010000000100000001FA
:100BF80000000100000100010001000100010001E6
:100C080000010001010001010001010100010101D1
:100C180000010101000101010101010101010101BE
:100C280000011125555C777FFF0D0002FFFF020BC5
:100C380000030D00020D00010A00020D00020F0062
:100C4800020D0002FFFF020900030D00020D000162
:100C58000800020900020B00020D0002090002064A
:100C680000020D00010F00020F00011200020C002B
:0C0C7800020D0006FFFF0C010000000050
:00000001FF
