S01700004763634170706C69636174696F6E342E7372656358
S11300000C942A000C9447000C9447000C9447006D
S11300100C9447000C9447000C9447000C94470040
S11300200C9447000C9447000C9447000C94470030
S11300300C9447000C9447000C9447000C94470020
S11300400C9447000C9447000C9447000C94470010
S11300500C94470011241FBECFE5D8E0DEBFCDBF0E
S113006010E0A0E6B0E0E8E8F3E002C005900D92ED
S1130070A437B107D9F710E0A4E7B0E001C01D929E
S1130080A737B107E1F70E94CB000C94C2010C948E
S11300900000E82FF0E0EF70F070E05AFF4F80812D
S11300A0809585BB089590917400933009F455C0F0
S11300B0943030F4913011F1923008F043C00CC008
S11300C0953009F463C0953008F44FC09F3F09F0A0
S11300D061C010927400089518BA0E9456016AE033
S11300E070E00E94DA00809375001092760081E03F
S11300F08093740080E00E9449000895823079F072
S11301008038C1F08130C9F480917600893019F0CB
S11301108F5F8093760082E0809374000EC080919C
S11301207600882319F081508093760082E08093D2
S1130130740003C083E080937400809176000E9471
S113014049000895833019F41092760008958823A5
S113015009F581E080937400089592E098BB8823A8
S1130160C9F484E0809374000895209175009091FF
S11301707600291719F493E098BB02C091E098BB6C
S1130180803841F485E0809374000895882311F445
S11301901092740008951ABA8FEF8BBB87BB18BAFC
S11301A084BB15BA8093740089B3809583780E94C8
S11301B05300FACF97FB092E07260AD077FD04D007
S11301C00CD006D000201AF4709561957F4F0895E5
S11301D0F6F7909581959F4F0895AA1BBB1B51E19B
S11301E007C0AA1FBB1FA617B70710F0A61BB70BA3
S11301F0881F991F5A95A9F780959095BC01CD0148
S113020008958F929F92AF92BF92CF92DF92EF9216
S1130210FF92CF93DF93EC0188819981AA81BB81FE
S11302200097A105B10521F484E299EDABE5B7E0AF
S1130230BC01CD012DE133EF41E050E00E94850186
S113024049015A0127EA31E440E050E00E94660186
S11302506B017C01C501B4012CEE34EF4FEF5FEF6D
S11302600E946601DC01CB01C80ED91EEA1EFB1EEA
S1130270F7FE08C08FEF9FEFAFEFBFE7C80ED91EA0
S1130280EA1EFB1EC882D982EA82FB82C6019F77DE
S1130290DF91CF91FF90EF90DF90CF90BF90AF9020
S11302A09F908F9008950E940101089580E790E047
S11302B00E9401010895A0E0B0E080937000909343
S11302C07100A0937200B09373000895629FD001EF
S11302D0739FF001829FE00DF11D649FE00DF11DFD
S11302E0929FF00D839FF00D749FF00D659FF00DAC
S11302F09927729FB00DE11DF91F639FB00DE11D99
S1130300F91FBD01CF011124089597FB092E05267D
S11303100ED057FD04D014D00AD0001C38F45095E8
S11303204095309521953F4F4F4F5F4F0895F6F715
S113033090958095709561957F4F8F4F9F4F08954D
S1130340A1E21A2EAA1BBB1BFD010DC0AA1FBB1FD5
S1130350EE1FFF1FA217B307E407F50720F0A21B47
S1130360B30BE40BF50B661F771F881F991F1A94B4
S113037069F760957095809590959B01AC01BD01DE
S10B0380CF010895F894FFCFAA
S11303887E483D6D4B67774C7F6F5F7336793717BF
S1070398010000005C
S9030000FC
