S016000064706173693030315F736F756E642E73726563E4
S11300000C942A000C9447000C9447000C9447006D
S11300100C9447000C9447000C9447000C94470040
S11300200C9447000C9447000C9447000C9449002E
S11300300C9447000C9447000C9447000C94470020
S11300400C9447000C9447000C9447000C94470010
S11300500C94470011241FBECFE5D8E0DEBFCDBF0E
S113006010E0A0E6B0E0E6E2F6E102C005900D92F1
S1130070A436B107D9F710E0A4E6B0E001C01D92A0
S1130080A836B107E1F70E94F2000C94110B0C940E
S113009000001F920F920FB60F9211242F934F93CB
S11300A05F936F937F938F939F93AF93BF9380914D
S11300B0600090916100A0916200B09163008F3F55
S11300C02FEF92072FEFA2072FEFB20749F41092F8
S11300D0640010926500109266001092670034C0AC
S11300E08091640090916500A0916600B0916700D2
S11300F00196A11DB11D8093640090936500A093A7
S11301006600B09367004091600050916100609177
S11301106200709163008091640090916500A091E9
S11301206600B091670084179507A607B70760F0CB
S11301309BB381E089278BBB109264001092650009
S11301401092660010926700BF91AF919F918F91BA
S11301507F916F915F914F912F910F900FBE0F90F0
S11301601F9018950F931F93DC01CB01BA01A901CD
S11301708093600090936100A0936200B093630049
S11301804115510561057105B1F080E090E00FEF74
S11301901DEE22E0015010402040E1F700C00000B5
S11301A001968C01222717FD2095322F041715077D
S11301B02607370760F38FEF9FEFDC018093600021
S11301C090936100A0936200B09363008FEF99EF66
S11301D0A0E081509040A040E1F700C000001F91D2
S11301E00F91089583B7816083BF89B7816089BF08
S11301F08FEF8ABB12BE10926400109265001092B9
S11302006600109267008FEF9FEFDC01809360001F
S113021090936100A0936200B0936300789464E5C6
S113022070E080E090E022E030E040E050E00E94A6
S1130230B2006FEF7FEFCB0122E030E040E050E00E
S11302400E94B20067E470E080E090E023E030E0D8
S113025040E050E00E94B20064E570E080E090E08D
S113026022E030E040E050E00E94B20064E570E03B
S113027080E090E021E030E040E050E00E94B200F5
S11302806FE370E080E090E022E030E040E050E096
S11302900E94B20064E570E080E090E022E030E08B
S11302A040E050E00E94B2006EE570E080E090E033
S11302B022E030E040E050E00E94B20064E570E0EB
S11302C080E090E022E030E040E050E00E94B200A4
S11302D06FEF7FEFCB0122E030E040E050E00E947E
S11302E0B20068E370E080E090E023E030E040E0BA
S11302F050E00E94B20064E570E080E090E022E00B
S113030030E040E050E00E94B20064E570E080E03C
S113031090E021E030E040E050E00E94B20065E36C
S113032070E080E090E022E030E040E050E00E94A5
S1130330B20068E370E080E090E022E030E040E06A
S113034050E00E94B20067E470E080E090E022E0B8
S113035030E040E050E00E94B20064E570E080E0EC
S113036090E022E030E040E050E00E94B20068E318
S113037070E080E090E022E030E040E050E00E9455
S1130380B2006AE270E080E090E022E030E040E019
S113039050E00E94B20064E570E080E090E021E06B
S11303A030E040E050E00E94B2006EE570E080E092
S11303B090E022E030E040E050E00E94B2006EE5C0
S11303C070E080E090E021E030E040E050E00E9406
S11303D0B20060E770E080E090E022E030E040E0CE
S11303E050E00E94B2006BE470E080E090E022E014
S11303F030E040E050E00E94B20064E570E080E04C
S113040090E026E030E040E050E00E94B2006FEF60
S11304107FEFCB012CE030E040E050E00E94B200DE
S1130420FECEAB01BC011416150616061706ACF574
S113043080E090E0DC01EFE8F1E03197F1F700C0F3
S11304400000EFE8F1E03197F1F700C00000EFE8B9
S1130450F1E03197F1F700C00000EFE8F1E03197E7
S1130460F1F700C00000EFE8F1E03197F1F700C0C8
S11304700000EFE8F1E03197F1F700C00000EFE889
S1130480F1E03197F1F700C000000196A11DB11D04
S113049084179507A607B70771F608956FE270E011
S11304A080E090E024E630E040E050E00E94B200BA
S11304B06BE470E080E090E00E9411026FE270E073
S11304C080E090E024E630E040E050E00E94B2009A
S11304D066E970E080E090E00E9411026FE270E053
S11304E080E090E024E630E040E050E00E94B2007A
S11304F066E970E080E090E00E9411026DE370E034
S113050080E090E024E630E040E050E00E94B20059
S113051062E370E080E090E00E9411026FE270E01C
S113052080E090E024E630E040E050E00E94B20039
S113053066E970E080E090E00E94110268E270E0F9
S113054080E090E024E630E040E050E00E94B20019
S113055063E171E080E090E00E94110262E570E0E6
S113056080E090E024E630E040E050E00E94B200F9
S11305706FE171E080E090E00E9411026DE370E0B1
S113058080E090E024E630E040E050E00E94B200D9
S113059061EE70E080E090E00E94110262E570E09C
S11305A080E090E024E630E040E050E00E94B200B9
S11305B068EC70E080E090E00E94110261E670E077
S11305C080E090E024E630E040E050E00E94B20099
S11305D06AEF70E080E090E00E94110267E470E04E
S11305E080E090E024E630E040E050E00E94B20079
S11305F066E970E080E090E00E94110261E470E03E
S113060080E090E020E530E040E050E00E94B2005D
S113061065EA70E080E090E00E94110265E470E019
S113062080E090E024E630E040E050E00E94B20038
S11306306BE470E080E090E00E94110268E470E0F6
S113064080E090E024E630E040E050E00E94B20018
S113065066E970E080E090E00E94110262E570E0DB
S113066080E090E024E630E040E050E00E94B200F8
S113067064E670E080E090E00E9411026FE270E0B6
S113068080E090E020E530E040E050E00E94B200DD
S113069064E670E080E090E00E94110269E270E09C
S11306A080E090E022E330E040E050E00E94B200BD
S11306B06BE470E080E090E00E94110264E270E07C
S11306C080E090E024E630E040E050E00E94B20098
S11306D066E970E080E090E00E9411026CE270E054
S11306E080E090E020E530E040E050E00E94B2007D
S11306F06BE470E080E090E00E94110269E270E037
S113070080E090E022E330E040E050E00E94B2005C
S11307106FEA70E080E090E00E9411026FE270E006
S113072080E090E020E530E040E050E00E94B2003C
S113073066E970E080E090E00E9411026CE370E0F2
S113074080E090E020E530E040E050E00E94B2001C
S11307506BE470E080E090E00E94110265E370E0D9
S113076080E090E020E530E040E050E00E94B200FC
S11307706BE470E080E090E00E94110261E470E0BC
S113078080E090E020E530E040E050E00E94B200DC
S11307906FEA70E080E090E00E9411026DE370E087
S11307A080E090E024E630E040E050E00E94B200B7
S11307B063E171E080E090E00E94110262E570E084
S11307C080E090E024E630E040E050E00E94B20097
S11307D068EC70E080E090E00E94110261E670E055
S11307E080E090E024E630E040E050E00E94B20077
S11307F06AEF70E080E090E00E94110267E470E02C
S113080080E090E024E630E040E050E00E94B20056
S113081066E970E080E090E00E94110261E470E01B
S113082080E090E020E530E040E050E00E94B2003B
S113083065EA70E080E090E00E94110265E470E0F7
S113084080E090E024E630E040E050E00E94B20016
S11308506BE470E080E090E00E94110268E470E0D4
S113086080E090E024E630E040E050E00E94B200F6
S113087066E970E080E090E00E94110262E570E0B9
S113088080E090E024E630E040E050E00E94B200D6
S113089064E670E080E090E00E9411026FE270E094
S11308A080E090E020E530E040E050E00E94B200BB
S11308B064E670E080E090E00E94110269E270E07A
S11308C080E090E022E330E040E050E00E94B2009B
S11308D06BE470E080E090E00E94110264E270E05A
S11308E080E090E024E630E040E050E00E94B20076
S11308F066E970E080E090E00E9411026CE270E032
S113090080E090E020E530E040E050E00E94B2005A
S11309106BE470E080E090E00E94110269E270E014
S113092080E090E022E330E040E050E00E94B2003A
S11309306FEA70E080E090E00E9411026FE270E0E4
S113094080E090E020E530E040E050E00E94B2001A
S113095066E970E080E090E00E9411026CE370E0D0
S113096080E090E020E530E040E050E00E94B200FA
S11309706BE470E080E090E00E94110265E370E0B7
S113098080E090E020E530E040E050E00E94B200DA
S11309906BE470E080E090E00E94110261E470E09A
S11309A080E090E020E530E040E050E00E94B200BA
S11309B06AEF70E080E090E00E9411026EE370E064
S11309C080E090E024E630E040E050E00E94B20095
S11309D066E970E080E090E00E94110269E270E054
S11309E080E090E024E630E040E050E00E94B20075
S11309F062E370E080E090E00E9411026BE270E03C
S1130A0080E090E024E630E040E050E00E94B20054
S1130A106BE470E080E090E00E9411026DE270E00F
S1130A2080E090E024E630E040E050E00E94B20034
S1130A306BE470E080E090E00E94110262E370E0F9
S1130A4080E090E026E930E040E050E00E94B2000F
S1130A5066E970E080E090E00E94110260E370E0DB
S1130A6080E090E026E930E040E050E00E94B200EF
S1130A7066E970E080E090E00E94110262E570E0B7
S1130A8080E090E024E630E040E050E00E94B200D4
S1130A906BE470E080E090E00E94110268E470E092
S1130AA080E090E024E630E040E050E00E94B200B4
S1130AB06BE470E080E090E00E9411026EE370E06D
S1130AC080E090E024E630E040E050E00E94B20094
S1130AD066E970E080E090E00E94110268E470E052
S1130AE080E090E024E630E040E050E00E94B20074
S1130AF06BE470E080E090E00E9411026EE370E02D
S1130B0080E090E024E630E040E050E00E94B20053
S1130B1062E370E080E090E00E94110266E370E01E
S1130B2080E090E024E630E040E050E00E94B20033
S1130B306EE670E080E090E00E9411026EE370E0E7
S1130B4080E090E024E630E040E050E00E94B20013
S1130B5066E970E080E090E00E94110269E270E0D2
S1130B6080E090E024E630E040E050E00E94B200F3
S1130B7062E370E080E090E00E9411026BE270E0BA
S1130B8080E090E024E630E040E050E00E94B200D3
S1130B906BE470E080E090E00E9411026DE270E08E
S1130BA080E090E024E630E040E050E00E94B200B3
S1130BB06BE470E080E090E00E94110262E370E078
S1130BC080E090E026E930E040E050E00E94B2008E
S1130BD066E970E080E090E00E94110260E370E05A
S1130BE080E090E028EC30E040E050E00E94B20069
S1130BF066E970E080E090E00E9411026EE170E02E
S1130C0080E090E020E530E040E050E00E94B20057
S1130C1066E970E080E090E00E9411026EE170E00D
S1130C2080E090E020E530E040E050E00E94B20037
S1130C306BE470E080E090E00E9411026EE170E0ED
S1130C4080E090E020E530E040E050E00E94B20017
S1130C5066E970E080E090E00E94110262E570E0D5
S1130C6080E090E024E630E040E050E00E94B200F2
S1130C7066E970E080E090E00E9411026EE370E0AB
S1130C8080E090E024E630E040E050E00E94B200D2
S1130C9066E970E080E090E00E94110269E270E091
S1130CA080E090E024E630E040E050E00E94B200B2
S1130CB062E370E080E090E00E9411026BE270E079
S1130CC080E090E024E630E040E050E00E94B20092
S1130CD06BE470E080E090E00E9411026DE270E04D
S1130CE080E090E024E630E040E050E00E94B20072
S1130CF06BE470E080E090E00E94110262E370E037
S1130D0080E090E026E930E040E050E00E94B2004C
S1130D1066E970E080E090E00E94110260E370E018
S1130D2080E090E026E930E040E050E00E94B2002C
S1130D3066E970E080E090E00E94110262E570E0F4
S1130D4080E090E024E630E040E050E00E94B20011
S1130D506BE470E080E090E00E94110268E470E0CF
S1130D6080E090E024E630E040E050E00E94B200F1
S1130D706BE470E080E090E00E9411026EE370E0AA
S1130D8080E090E024E630E040E050E00E94B200D1
S1130D9066E970E080E090E00E94110268E470E08F
S1130DA080E090E024E630E040E050E00E94B200B1
S1130DB06BE470E080E090E00E9411026EE370E06A
S1130DC080E090E024E630E040E050E00E94B20091
S1130DD062E370E080E090E00E94110266E370E05C
S1130DE080E090E024E630E040E050E00E94B20071
S1130DF06EE670E080E090E00E9411026EE370E025
S1130E0080E090E024E630E040E050E00E94B20050
S1130E1066E970E080E090E00E94110269E270E00F
S1130E2080E090E024E630E040E050E00E94B20030
S1130E3062E370E080E090E00E9411026BE270E0F7
S1130E4080E090E024E630E040E050E00E94B20010
S1130E506BE470E080E090E00E9411026DE270E0CB
S1130E6080E090E024E630E040E050E00E94B200F0
S1130E706BE470E080E090E00E94110262E370E0B5
S1130E8080E090E026E930E040E050E00E94B200CB
S1130E9066E970E080E090E00E94110260E370E097
S1130EA080E090E028EC30E040E050E00E94B200A6
S1130EB066E970E080E090E00E9411026EE170E06B
S1130EC080E090E020E530E040E050E00E94B20095
S1130ED066E970E080E090E00E9411026EE170E04B
S1130EE080E090E020E530E040E050E00E94B20075
S1130EF06BE470E080E090E00E9411026EE170E02B
S1130F0080E090E020E530E040E050E00E94B20054
S1130F1066E970E080E090E00E94110262E570E012
S1130F2080E090E024E630E040E050E00E94B2002F
S1130F3066E970E080E090E00E9411026EE370E0E8
S1130F4080E090E024E630E040E050E00E94B2000F
S1130F5066E970E080E090E00E94110269E270E0CE
S1130F6080E090E024E630E040E050E00E94B200EF
S1130F7062E370E080E090E00E9411026BE270E0B6
S1130F8080E090E024E630E040E050E00E94B200CF
S1130F906BE470E080E090E00E9411026DE270E08A
S1130FA080E090E024E630E040E050E00E94B200AF
S1130FB06BE470E080E090E00E94110262E370E074
S1130FC080E090E026E930E040E050E00E94B2008A
S1130FD066E970E080E090E00E94110260E370E056
S1130FE080E090E026E930E040E050E00E94B2006A
S1130FF066E970E080E090E00E94110262E570E032
S113100080E090E024E630E040E050E00E94B2004E
S11310106BE470E080E090E00E94110268E470E00C
S113102080E090E024E630E040E050E00E94B2002E
S11310306BE470E080E090E00E9411026EE370E0E7
S113104080E090E024E630E040E050E00E94B2000E
S113105066E970E080E090E00E94110268E470E0CC
S113106080E090E024E630E040E050E00E94B200EE
S11310706BE470E080E090E00E9411026EE370E0A7
S113108080E090E024E630E040E050E00E94B200CE
S113109062E370E080E090E00E94110266E370E099
S11310A080E090E024E630E040E050E00E94B200AE
S11310B062ED70E080E090E00E94110265E370E070
S11310C080E090E024E630E040E050E00E94B2008E
S11310D063E171E080E090E00E94110268E370E057
S11310E080E090E024E630E040E050E00E94B2006E
S11310F062ED70E080E090E00E9411026EE370E027
S113110080E090E024E630E040E050E00E94B2004D
S113111064EB70E080E090E00E94110262E570E010
S113112080E090E024E630E040E050E00E94B2002D
S113113066E970E080E090E00E9411026EE370E0E6
S113114080E090E024E630E040E050E00E94B2000D
S113115066E970E080E090E00E9411026EE370E0C6
S113116080E090E024E630E040E050E00E94B200ED
S11311706BE470E080E090E00E9411026EE370E0A6
S113118080E090E024E630E040E050E00E94B200CD
S113119066E970E080E090E00E9411026EE370E086
S11311A080E090E02CE330E040E050E00E94B200A8
S11311B06BE470E080E090E00E9411026EE370E066
S11311C080E090E020E530E040E050E00E94B20092
S11311D066E970E080E090E00E9411026EE370E046
S11311E080E090E02CE330E040E050E00E94B20068
S11311F06FEA70E080E090E00E9411026EE370E01C
S113120080E090E020E530E040E050E00E94B20051
S11312106BE470E080E090E00E94110265E370E00E
S113122080E090E020E530E040E050E00E94B20031
S11312306FEA70E080E090E00E9411026FE270E0DB
S113124080E090E020E530E040E050E00E94B20011
S11312506BE470E080E090E00E9411026EE370E0C5
S113126080E090E020E530E040E050E00E94B200F1
S113127066E970E080E090E00E94110268E470E0AA
S113128080E090E020E530E040E050E00E94B200D1
S11312906BE470E080E090E00E94110262E570E08F
S11312A080E090E020E530E040E050E00E94B200B1
S11312B06CE271E080E090E00E9411026EE370E065
S11312C080E090E02CE330E040E050E00E94B20087
S11312D06BE470E080E090E00E9411026EE370E045
S11312E080E090E020E530E040E050E00E94B20071
S11312F066E970E080E090E00E9411026EE370E025
S113130080E090E02CE330E040E050E00E94B20046
S11313106FEA70E080E090E00E9411026EE370E0FA
S113132080E090E020E530E040E050E00E94B20030
S11313306BE470E080E090E00E94110265E370E0ED
S113134080E090E020E530E040E050E00E94B20010
S11313506BE470E080E090E00E9411026FE270E0C4
S113136080E090E020E530E040E050E00E94B200F0
S113137061EE70E080E090E00E94110263E270E0B0
S113138080E090E020E530E040E050E00E94B200D0
S113139062EA70E080E090E00E94110269E270E08D
S11313A080E090E020E530E040E050E00E94B200B0
S11313B06CE271E080E090E00E9411026EE370E064
S11313C080E090E02CE330E040E050E00E94B20086
S11313D06BE470E080E090E00E9411026EE370E044
S11313E080E090E020E530E040E050E00E94B20070
S11313F066E970E080E090E00E9411026EE370E024
S113140080E090E02CE330E040E050E00E94B20045
S11314106FEA70E080E090E00E9411026EE370E0F9
S113142080E090E020E530E040E050E00E94B2002F
S11314306BE470E080E090E00E94110265E370E0EC
S113144080E090E020E530E040E050E00E94B2000F
S11314506FEA70E080E090E00E9411026FE270E0B9
S113146080E090E020E530E040E050E00E94B200EF
S11314706BE470E080E090E00E9411026EE370E0A3
S113148080E090E020E530E040E050E00E94B200CF
S113149066E970E080E090E00E94110268E470E088
S11314A080E090E020E530E040E050E00E94B200AF
S11314B06BE470E080E090E00E94110262E570E06D
S11314C080E090E020E530E040E050E00E94B2008F
S11314D06CE271E080E090E00E9411026FE270E043
S11314E080E090E024E630E040E050E00E94B2006A
S11314F06BE470E080E090E00E9411026FE270E023
S113150080E090E024E630E040E050E00E94B20049
S113151066E970E080E090E00E9411026FE270E002
S113152080E090E024E630E040E050E00E94B20029
S113153066E970E080E090E00E9411026DE370E0E3
S113154080E090E024E630E040E050E00E94B20009
S113155062E370E080E090E00E9411026FE270E0CC
S113156080E090E024E630E040E050E00E94B200E9
S113157066E970E080E090E00E94110268E270E0A9
S113158080E090E024E630E040E050E00E94B200C9
S113159061EE70E080E090E00E94110262E570E08C
S11315A080E090E024E630E040E050E00E94B200A9
S11315B068EE73E080E090E00E94110267E470E05E
S11315C080E090E028EC30E040E050E00E94B2007F
S11315D068EC70E080E090E00E94110268EC70E03A
S11315E080E090E00E94110267E470E080E090E007
S11315F020E931E040E050E00E94B20068EC70E085
S113160080E090E00E94110268EC70E080E090E0DD
S11316100E94110268E873E180E090E00E941102E8
S10916200895F894FFCFC9
S1071626FFFFFFFFC0
S9030000FC
