S01B000064706173693030315F6C6162365F70617274312E737265635C
S11300000C942A000C9447000C9447000C9447006D
S11300100C9447000C9447000C9447000C94470040
S11300200C9447000C9447000C946A000C9447000D
S11300300C9447000C9447000C9447000C94470020
S11300400C9447000C9447000C9447000C94470010
S11300500C94470011241FBECFE5D8E0DEBFCDBF0E
S113006010E0A0E6B0E0E4E1F2E002C005900D92F9
S1130070A436B107D9F710E0A4E6B0E001C01D92A0
S1130080AB36B107E1F70E94F2000C9408010C941E
S113009000008BE083BF8DE78CBF82E089BF12BE76
S11300A08091600090916100A0916200B091630022
S11300B08093640090936500A0936600B0936700FA
S11300C08FB780688FBF089513BE089581E0809331
S11300D0680008951F920F920FB60F9211242F9368
S11300E03F934F935F936F937F938F939F93AF93BC
S11300F0BF93EF93FF938091640090916500A0916A
S11301006600B09167000197A109B109809364006A
S113011090936500A0936600B09367000097A105D3
S1130120B10591F40E946600809160009091610095
S1130130A0916200B0916300809364009093650085
S1130140A0936600B0936700FF91EF91BF91AF91C8
S11301509F918F917F916F915F914F913F912F91DB
S11301600F900FBE0F901F901895DC01CB01809368
S1130170600090936100A0936200B0936300809349
S1130180640090936500A0936600B093670008959F
S113019080916A00813059F0813028F0823069F012
S11301A08330B1F411C081E080936A0014C082E00E
S11301B080936A008093690011C083E080936A0091
S11301C084E0809369000AC081E080936A0003C0E0
S11301D081E080936A0081E08093690080916900E6
S11301E088BB08958FEF87BB18BA68EE73E080E090
S11301F090E00E94B5000E94490010926A000E949B
S1130200C800809168008823E1F310926800F7CF5A
S1070210F894FFCF8C
S107021401000000E1
S9030000FC
