:100000000C942A000C9447000C9447000C94470071
:100010000C9447000C9447000C9447000C94470044
:100020000C9447000C9447000C946A000C94470011
:100030000C9447000C9447000C9447000C94470024
:100040000C9447000C9447000C9447000C94470014
:100050000C94470011241FBECFE5D8E0DEBFCDBF12
:1000600010E0A0E6B0E0E6EBF2E002C005900D92F1
:10007000A437B107D9F710E0A4E7B0E001C01D92A2
:10008000AD37B107E1F70E9412010C9459010C94AD
:1000900000008BE083BF89E18CBF82E089BF12BE84
:1000A0008091600090916100A0916200B091630026
:1000B0008093750090937600A0937700B0937800BA
:1000C0008FB780688FBF089513BE089581E0809335
:1000D000790008951F920F920FB60F9211242F935B
:1000E0003F934F935F936F937F938F939F93AF93C0
:1000F000BF93EF93FF938091750090917600A0914C
:100100007700B09178000197A109B109809375003B
:1001100090937600A0937700B09378000097A105A4
:10012000B10591F40E946600809160009091610099
:10013000A0916200B0916300809375009093760067
:10014000A0937700B0937800FF91EF91BF91AF91AA
:100150009F918F917F916F915F914F913F912F91DF
:100160000F900FBE0F901F901895DC01CB0180936C
:10017000600090936100A0936200B093630080934D
:10018000750090937600A0937700B093780008955F
:10019000E82FF0E0EF70F070EC59FF4F8081809510
:1001A00085BB089580917C00813079F0813030F0FA
:1001B00010927C0081E080937B00089581E0809321
:1001C0007C0082E080937B00089582E080937C0035
:1001D00084E080937B00089580917A00882319F051
:1001E000813041F404C081E080937A000BC010920A
:1001F0007A0005C0882319F0813039F403C01092C9
:100200007400089588E08093740008959B0161153F
:10021000710539F00E944501682F792FC9010E94AC
:10022000060108951ABA8FEF8BBB87BB18BA84BB3F
:1002300085BB65E070E080E090E00E94B5000E9420
:100240004900C8EED3E00CE211E0EE24FF2481E087
:100250000C32180718F00E94D200870183E0C83ED4
:10026000D80718F00E94EC00E70121960F5F1F4F9E
:100270009091740080917B00892B88BB80917900DC
:100280008823E1F310927900E2CFAA1BBB1B51E156
:1002900007C0AA1FBB1FA617B70710F0A61BB70BF6
:1002A000881F991F5A95A9F780959095BC01CD019B
:0602B0000895F894FFCF51
:1002B600010000007E483D6D4B67774C7F6F5F7392
:0402C6003679371737
:00000001FF
