:100000000C942A000C9447000C9447000C94470071
:100010000C9447000C9447000C9447000C94470044
:100020000C9447000C9447000C946A000C94470011
:100030000C9447000C9447000C9447000C94470024
:100040000C9447000C9447000C9447000C94470014
:100050000C94470011241FBECFE5D8E0DEBFCDBF12
:1000600010E0A0E6B0E0E6ECF3E002C005900D92EF
:10007000A437B107D9F710E0A4E7B0E001C01D92A2
:10008000AD37B107E1F70E948C010C94E1010C94AB
:1000900000008BE083BF8DE78CBF82E089BF12BE7A
:1000A0008091600090916100A0916200B091630026
:1000B0008093740090937500A0937600B0937700BE
:1000C0008FB780688FBF089513BE089581E0809335
:1000D000780008951F920F920FB60F9211242F935C
:1000E0003F934F935F936F937F938F939F93AF93C0
:1000F000BF93EF93FF938091740090917500A0914E
:100100007600B09177000197A109B109809374003E
:1001100090937500A0937600B09377000097A105A7
:10012000B10591F40E946600809160009091610099
:10013000A0916200B0916300809374009093750069
:10014000A0937600B0937700FF91EF91BF91AF91AC
:100150009F918F917F916F915F914F913F912F91DF
:100160000F900FBE0F901F901895DC01CB0180936C
:10017000600090936100A0936200B093630080934D
:10018000740090937500A0937600B0937700089563
:10019000E82FF0E0EF70F070EC59FF4F8081809510
:1001A00085BB089590917A00933009F454C094303F
:1001B00028F49130A9F0923068F50AC0953009F41E
:1001C0006AC0953008F45FC0963009F07CC06BC0FF
:1001D00081E080937A0010927C0010927B0078C0BE
:1001E000882361F084E080937A0080917B008823EB
:1001F00009F46EC0815080937B006AC080917C00BE
:100200006FE00E94AE01992309F062C082E0809302
:100210007A005EC0882399F084E080937A00809110
:100220007B00893018F48F5F80937B0080917B0086
:10023000893009F04DC087E08093790049C08091F2
:100240007C006FE00E94AE01992309F041C083E079
:1002500080937A003DC0882359F084E080937A002F
:1002600080917B008823A1F1815080937B0030C076
:1002700080917C006FE00E94AE01992349F581E0F6
:1002800080937A0025C0882311F084E001C085E0C6
:1002900080937A001DC0882311F485E001C086E0B8
:1002A00080937A0015C0882311F086E001C081E0B8
:1002B00080937A0080917B00893011F410927B004A
:1002C00010927C0005C081E080937A0010927C003F
:1002D00080917C0090E001966FE070E00E94BA018E
:1002E00080937C0080917A00823039F0833049F02D
:1002F000813051F48093790007C082E080937900C7
:1003000003C084E0809379008091790088BB80915C
:100310007B000E94C80008951ABA8FEF8BBB87BB81
:1003200018BA84BB15BA64E170E080E090E00E94E6
:10033000B5000E94490010927A0080E00E94C80037
:10034000D1E0C0E08D2FC8998C2F0E94D2008091FF
:1003500078008823E1F3C0937800F4CF991B79E00B
:1003600004C0991F961708F0961B881F7A95C9F745
:100370008095089597FB092E07260AD077FD04D0B3
:100380000CD006D000201AF4709561957F4F089527
:10039000F6F7909581959F4F0895AA1BBB1B51E1DD
:1003A00007C0AA1FBB1FA617B70710F0A61BB70BE5
:1003B000881F991F5A95A9F780959095BC01CD018A
:0603C0000895F894FFCF40
:1003C600010000007E483D6D4B67774C7F6F5F7381
:0403D6003679371726
:00000001FF
