S01E000064706173693030315F66696E616C5F70726F6A6563742E73726563A5
S11300000C940C020C9429020C9429020C942902DD
S11300100C9429020C9429020C9429020C942902B0
S11300200C9429020C9429020C9477090C9429024B
S11300300C9429020C9429020C9429020C94290290
S11300400C9429020C9429020C9429020C94290280
S11300500C9429023A0900093D0E3A093A043F0971
S11300603A0938093A090009410E3A093A044209A1
S113007041093D093A09410946093A043809380455
S113008035093C093A4C001C1C06280619062506AD
S11300901A062606000C00301C062806190625063A
S11300A01A062606000C00301506210612061E0646
S11300B013061F06000C00301506210612061E0644
S11300C013061F06000C000C1F041E041D041C094B
S11300D000031F0900031E090003180900031A097D
S11300E000031D0900031C04220421042004260427
S11300F0250424081F081B081A0819081808FF609B
S113010036032F0335032F0334032F0329032F034F
S113011036032F0337032F0336032F0335032F032F
S113012036032F0335032F0334032F0329032F032F
S113013036032F0337032F0336032F0335032F030F
S113014035032E0334032E0335032E0336032E0307
S113015035032E0336032E0335032E0334032E03F7
S113016034032E0334032E0334032E0334032E03EB
S113017034032E0334032E0334032E0334032E03DB
S1130180390332033A0332033903320338033203A7
S1130190390332033803320337033203380332039B
S11301A0390332033A033203390332033803320387
S11301B0390332033803320337033203380332037B
S11301C0380638060006380600063406380C3B0CA0
S11301D0000C2F0C000C34122F06000C2C12310CC6
S11301E0330C3206310C2F0838083B083D0C390615
S11301F03B060006380C34063606330C000634126F
S11302002F06000C2A12310C330C3206310C2F0845
S113021038083B083D0C39063B060006380C34060A
S11302203606330C0006000C3B063A063906370C3A
S11302303806000630063106340600063106340658
S11302403606000C3B063A063906370C380600061B
S1130250400600064006401200123B063A063906E4
S1130260370C38060006300631063406000631061F
S113027034063606000C370C0006360C0006341221
S11302800012000C3B063A063906370C3806000605
S11302903006310634060006310634063606000CF4
S11302A03B063A063906370C3806000640060006B7
S11302B04006401200123B063A063906370C38064F
S11302C000063006310634060006310634063606CA
S11302D0000C370C0006360C0006341200123406EB
S11302E0340C340600063406360C3806340C310659
S11302F02F303406340C340600063406360638062D
S113030000603406340C340600063406360C380615
S1130310340C31062F30380638060006380600063D
S1130320340638063B0C000C2F0C000C34122F063C
S113033000062C12310C330C3206310C2F0838080D
S11303403B083D0C39063B060006380C34063606DD
S1130350330C000634122F06000C2C12310C330C13
S11303603206310C2F0838083B083D0C39063B0691
S11303700006380C34063606330C00063806340CF6
S11303802F06000C300C3106390C390631120006E8
S113039033083D083D083D083B0839083806340C4D
S11303A031062F1200063806340C2F06000C300CD0
S11303B03106390C3906313033083908390839081F
S11303C038083608343000303806340C2F06000C58
S11303D0300C3106390C39063112000633083D0859
S11303E03D083D083B0839083806340C31062F1205
S11303F000063806340C2F06000C300C3106390C7C
S113040039063130330839083908390838083608CC
S1130410343000300030000311241FBECFE5D8E093
S1130420DEBFCDBF11E0A0E6B0E0E6E9FCE502C026
S113043005900D92A235B107D9F714E0A2E5B1E019
S113044001C01D92AF3DB107E1F70E94702A0C94E0
S1130450492E0C94000080917D04826088BB8D7FBE
S113046080937D0488BB109275041092740421E07B
S113047030E0B09B02C020E030E0846088BB482FAD
S11304804B7F40937D0448BB220F331F3093750488
S11304902093740481E090E0B09B02C080E090E07F
S11304A0822B932B242F246028BB2B7F20937D0445
S11304B028BB880F991F9093750480937404E1E01E
S11304C0F0E0B09B02C0E0E0F0E0E82BF92B822FD3
S11304D0846088BB8B7F80937D0488BBEE0FFF1FF5
S11304E0F0937504E093740461E070E0B09B02C083
S11304F060E070E06E2B7F2B846088BB8B7F8093E1
S11305007D0488BB660F771F709375046093740431
S113051041E050E0B09B02C040E050E0462B572B36
S1130520846088BB8B7F80937D0488BB440F551FF8
S1130530509375044093740421E030E0B09B02C0F2
S113054020E030E0242B352B482F446048BB4B7F00
S113055040937D0448BB220F331F309375042093CE
S1130560740481E090E0B09B02C080E090E0822BB4
S1130570932B446048BB4B7F40937D0448BB880F5A
S1130580991F909375048093740421E030E0B09B2C
S113059002C020E030E0822B932B9093750480936B
S11305A07404446048BB4B7F40937D0448BB80E0A7
S11305B008958230E9F0833030F0843021F18430C2
S11305C050F484E00895882361F0813061F0109242
S11305D0650180E008958530D1F7909164019923F5
S11305E089F781E0089590916601992381F4089533
S11305F090916401992331F31092640181E0809316
S1130600650183E008951092650185E0089582E014
S11306100895FF920F931F93CF93DF93F0905203AB
S113062028E0F21609F446C21F2D10951770109396
S1130630540360915303212F30E070E0AB01477005
S11306405070CB01019687709070D901AA0FBB1F1F
S1130650A20FB31FAA0FBB1FAA0FBB1FAA0FBB1F5A
S1130660A65ABC4F5596EC915597F0E0EE0FFF1F3C
S1130670EE0FFF1FEE0FFF1FE40FF51FEB50FF4FB0
S113068030815296EC915297F0E0EE0FFF1FEE0F7F
S1130690FF1FEE0FFF1FE80FF91FEB50FF4F2081E4
S11306A0220F232B5696EC915697F0E0EE0FFF1F86
S11306B0EE0FFF1FEE0FFF1FE40FF51FEB50FF4F70
S11306C0C0815396EC915397F0E0EE0FFF1FEE0FAD
S11306D0FF1FEE0FFF1FE80FF91FEB50FF4F308194
S11306E0330F3C2B5796EC915797F0E0EE0FFF1F1A
S11306F0EE0FFF1FEE0FFF1FE40FF51FEB50FF4F30
S113070040815496EC915497F0E0EE0FFF1FEE0FEA
S1130710FF1FEE0FFF1FE80FF91FEB50FF4F508133
S1130720550F542BCB010296877090701F96EC9155
S11307301F97F0E0EE0FFF1FEE0FFF1FEE0FFF1FDE
S1130740E80FF91FEB50FF4F4081440F440F422B39
S11307505096EC915097F0E0EE0FFF1FEE0FFF1F45
S1130760EE0FFF1FE80FF91FEB50FF4F2081220F00
S1130770220F232B5196EC915197F0E0EE0FFF1FBF
S1130780EE0FFF1FEE0FFF1FE80FF91FEB50FF4F97
S11307900081000F000F052BCB010396877090702A
S11307A01C96EC911C97F0E0EE0FFF1FEE0FFF1F5D
S11307B0EE0FFF1FE80FF91FEB50FF4F5081550F4D
S11307C0550F550F542B1D96EC911D97F0E0EE0F2D
S11307D0FF1FEE0FFF1FEE0FFF1FE80FF91FEB5077
S11307E0FF4F3081330F330F330F322B1E96EC91B2
S11307F01E97F0E0EE0FFF1FEE0FFF1FEE0FFF1F1F
S1130800E80FF91FEB50FF4FC081CC0FCC0FCC0F7A
S1130810C02BCB010496877090701996EC911997B0
S1130820F0E0EE0FFF1FEE0FFF1FEE0FFF1FE80FAC
S1130830F91FEB50FF4F40814295407F452B1A969C
S1130840EC911A97F0E0EE0FFF1FEE0FFF1FEE0F73
S1130850FF1FE80FF91FEB50FF4F20812295207FE7
S1130860232B1B96EC911B97F0E0EE0FFF1FEE0F6E
S1130870FF1FEE0FFF1FE80FF91FEB50FF4F008122
S11308800295007F0C2BCB0105968770907016960D
S1130890EC911697F0E0EE0FFF1FEE0FFF1FEE0F27
S11308A0FF1FE80FF91FEB50FF4F50815295550F72
S11308B0507E542B1796EC911797F0E0EE0FFF1F24
S11308C0EE0FFF1FEE0FFF1FE80FF91FEB50FF4F56
S11308D030813295330F307E322B1896EC91189775
S11308E0F0E0EE0FFF1FEE0FFF1FEE0FFF1FE80FEC
S11308F0F91FEB50FF4FC081C295CC0FC07EC02BB7
S1130900CB010696877090701396EC911397F0E0E4
S1130910EE0FFF1FEE0FFF1FEE0FFF1FE80FF91F73
S1130920EB50FF4F40814295440F440F407C452BD0
S11309301496EC911497F0E0EE0FFF1FEE0FFF1FDB
S1130940EE0FFF1FE80FF91FEB50FF4F2081229598
S1130950220F220F207C232B1596EC911597F0E0A3
S1130960EE0FFF1FEE0FFF1FEE0FFF1FE80FF91F23
S1130970EB50FF4F30813295330F330F307C3C2BDB
S1130980CB01079687709070EC91F0E0EE0FFF1F9B
S1130990EE0FFF1FEE0FFF1FE80FF91FEB50FF4F85
S11309A06081679566276795642B1196EC91119782
S11309B0F0E0EE0FFF1FEE0FFF1FEE0FFF1FE80F1B
S11309C0F91FEB50FF4FE081E795EE27E795E22B07
S11309D01296AC91B0E0AA0FBB1FAA0FBB1FAA0FBF
S11309E0BB1FA80FB91FAB50BF4FCC91C795CC27E5
S11309F0C795C32B1092560370E060957095F0E094
S1130A00E095F095D0E0C095D09581E090E001C0EC
S1130A10880F1A95EAF7082F10E080E0A0E09F0104
S1130A20082E02C0359527950A94E2F7220F331F4A
S1130A30B22FB2709E01082E02C0359527950A94F4
S1130A40E2F7220F331F220F331F2470B22BAB01A6
S1130A50082E02C0559547950A94E2F74170B42BCD
S1130A60980102C0359527958A95E2F7C901880F48
S1130A70991F880F991F880F991F8870B82BB5BBD1
S1130A808B2F806185BB8A2F8F5FA82F809355039E
S1130A90883028F2B063B5BBBF7DB0937304B5BB97
S1130AA0F394F092520380E0DF91CF911F910F9164
S1130AB0FF9008952091530330E02F5F3F4F27703C
S1130AC03070622F2093530387E08093540317E020
S1130AD0FF24B1CD1F93CF93DF9300D0CDB7DEB702
S1130AE0182F80917A0490917B04880F991F60914C
S1130AF0760470917704680F791FCE01019642E065
S1130B0050E00E94DD2D113009F49AC0113050F0EC
S1130B101F3F09F410C18FEF0F900F90DF91CF9119
S1130B201F9108958091570390915803A0E0B0E07D
S1130B3080933C0490933D04A0933E04B0933F04FF
S1130B40298130916F043A7F3BBB822F90E0217062
S1130B50232B2BBB24602BBB422F4A7F4BBB9C0116
S1130B60359527952170242B2BBB24602BBB422F5A
S1130B704A7F4BBB9C013595279535952795217068
S1130B80242B2BBB24602BBB422F4A7F4BBB9C01E5
S1130B903595279535952795359527952170242BDF
S1130BA02BBB24602BBB422F4A7F4BBB9C0135954A
S1130BB02795359527953595279535952795217052
S1130BC0242B2BBB24602BBB422F4A7F4BBB9C01A5
S1130BD035952795359527953595279535952795F9
S1130BE0359527952170242B2BBB24602BBB422FDA
S1130BF04A7F4BBB9C01022E232F000C221F330B78
S1130C00000C221F331F2170242B2BBB24602BBB11
S1130C102A7F2BBB880F892F881F990B822B8BBBB4
S1130C20982F94609BBB86608BBB8D7F80936F04F1
S1130C308BBB81E00F900F90DF91CF911F910895AE
S1130C4080E590E0A0E0B0E080933C0490933D0404
S1130C50A0933E04B0933F0480917A0490917B0466
S1130C60019660917804709179040E94452D9093C7
S1130C707B0480937A04880F991F609176047091A5
S1130C807704680F791FCE01019642E050E00E947C
S1130C90DD2D80916F048A7F8BBB8BBB84608BBB03
S1130CA08A7F8BBB8BBB84608BBB8A7F8BBB8BBBEC
S1130CB084608BBB8A7F8BBB8BBB84608BBB8A7F3E
S1130CC08BBB8BBB84608BBB8A7F8BBB8BBB8460F1
S1130CD08BBB8A7F8BBB8BBB84608BBB8A7F8BBBBC
S1130CE08BBB982F94609BBB86608BBB8D7F80935E
S1130CF06F048BBB9A818AEA989FC0011124909358
S1130D005803809357038091580190915901A09101
S1130D105A01B0915B018F3F2FEF920720E0A207A9
S1130D2020E0B20709F492C080E00F900F90DF91A9
S1130D30CF911F9108952981822F90E030916F0403
S1130D403A7F3BBB2170232B2BBB24602BBB422F50
S1130D504A7F4BBB9C01359527952170242B2BBBD7
S1130D6024602BBB422F4A7F4BBB9C0135952795B2
S1130D70359527952170242B2BBB24602BBB422F48
S1130D804A7F4BBB9C01359527953595279535951D
S1130D9027952170242B2BBB24602BBB422F4A7F29
S1130DA04BBB9C013595279535952795359527950A
S1130DB0359527952170242B2BBB24602BBB422F08
S1130DC04A7F4BBB9C0135952795359527953595DD
S1130DD0279535952795359527952170242B2BBB81
S1130DE024602BBB422F4A7F4BBB9C01022E232F36
S1130DF0000C221F330B000C221F331F2170242BE5
S1130E002BBB24602BBB2A7F2BBB880F892F881F09
S1130E10990B822B8BBB982F94609BBB86608BBBFA
S1130E208D7F80936F048BBB9A818AEA989FC0015F
S1130E30112480559040909358038093570380E089
S1130E400F900F90DF91CF911F91089582E064CEAF
S1130E50863009F4E4C1873080F0893009F461C137
S1130E608A3008F050C0873009F4EFC0883009F4A4
S1130E70AEC01092660180E00895833009F494C1F5
S1130E80843008F450C0843009F410C1853089F7E7
S1130E90E091EC00F091ED0080818F7E8083E09101
S1130EA0F000F091F100A091EC00B091ED008C9174
S1130EB08083E091EC00F091ED008081877F808356
S1130EC0E091F000F091F100A091EC00B091ED0000
S1130ED08C918083E091F200F091F30081E08083B3
S1130EE0E091EC00F091ED00808180618083E091DD
S1130EF0F000F091F100A091EC00B091ED008C9124
S1130F00808386E008958A3009F442C08B3009F06A
S1130F10B0CF90916501992309F097C181E0809346
S1130F20660187E00895882309F44CC0813009F0F4
S1130F30A0CF80915103843608F485C1E091EC0080
S1130F40F091ED008081877F8083E091F000F09143
S1130F50F100A091EC00B091ED008C918083E091C0
S1130F60F200F091F30088E38083E091EC00F091CB
S1130F70ED00808180618083E091F000F091F100C8
S1130F80A091EC00B091ED008C91808383E00895F2
S1130F9090915103E091EC00F091ED0080818F7EFF
S1130FA08083E091F000F091F100A091EC00B09109
S1130FB0ED008C9180839F3008F043C19F5F909334
S1130FC0510319C081E08093510381E00895E091B9
S1130FD0EC00F091ED0080818F7E8083E091F00041
S1130FE0F091F100A091EC00B091ED008C91808320
S1130FF01092510390E0E091EC00F091ED008081BB
S1131000877F8083E091F000F091F100A091EC00E3
S1131010B091ED008C918083E091F200F091F300A7
S113102090589083E091EC00F091ED008081806114
S11310308083E091F000F091F100A091EC00B09178
S1131040ED008C91808389E0089580916501882367
S113105009F464CF10926601E091EC00F091ED0088
S11310608081877F8083E091F000F091F100A0916E
S1131070EC00B091ED008C918083E091F200F0914E
S1131080F30081E08083E091EC00F091ED00808139
S113109080618083E091F000F091F100A091EC0078
S11310A0B091ED008C91808388E00895E091EC008C
S11310B0F091ED0080818F7E8083E091F000F091CB
S11310C0F100A091EC00B091ED008C918083E0914F
S11310D0EC00F091ED008081877F8083E091F00047
S11310E0F091F100A091EC00B091ED008C9180831F
S11310F0E091F200F091F3008FE08083E091EC0046
S1131100F091ED00808180618083E091F000F091A6
S1131110F100A091EC00B091ED008C91808385E00A
S11311200895E091EC00F091ED0080818F7E808342
S1131130E091F000F091F100A091EC00B091ED008D
S11311408C91808380915103E091E800F091E90053
S1131150E80FF11D9081E091EC00F091ED008081A9
S113116088608083E091F000F091F100A091EC00A0
S1131170B091ED008C918083E091F200F091F30046
S11311809083E091EC00F091ED0080818061808398
S1131190E091F000F091F100A091EC00B091ED002D
S11311A08C9180838AE00895E091EC00F091ED0049
S11311B080818F7E8083E091F000F091F100A09116
S11311C0EC00B091ED008C918083E091EC00F09103
S11311D0ED008081877F8083E091F000F091F10041
S11311E0A091EC00B091ED008C918083E091F2002D
S11311F0F091F30086E08083E091EC00F091ED0043
S1131200808180618083E091F000F091F100A091F1
S1131210EC00B091ED008C91808384E00895E0911E
S1131220EC00F091ED0080818F7E8083E091F000EE
S1131230F091F100A091EC00B091ED008C918083CD
S11312406DCE8BE008958F5FBECE0895DC01CB0197
S11312508093460190934701A0934801B0934901BC
S11312608093480390934903A0934A03B0934B039C
S11312700895AB01BC01DB01CA01880F991FAA1FA5
S1131280BB1F880F991FAA1FBB1F840F951FA61F82
S1131290B71F8093460190934701A0934801B093F0
S11312A049018093480390934903A0934A03B09360
S11312B04B0308958BE083BF89E18CBF82E089BF33
S11312C012BE8091460190914701A0914801B091CE
S11312D049018093480390934903A0934A03B09330
S11312E04B038FB780688FBF089513BE08951F9274
S11312F00F920FB60F9211248F939F93AF93BF93C6
S11313008091480390914903A0914A03B0914B0303
S11313100197A109B1098093480390934903A093CD
S11313204A03B0934B030097A105B10599F481E0FA
S113133080934C038091460190914701A09148010C
S1131340B09149018093480390934903A0934A03C1
S1131350B0934B03BF91AF919F918F910F900FBEAC
S11313600F901F901895161617066CF4FC0180E078
S113137090E02081222311F02C5F20830196329685
S113138086179707B1F7089586E194E09093770460
S11313908093760410927B0410927A0481E090E0AA
S11313A0909379048093780408956F927F928F923A
S11313B09F92BF92CF92DF92EF92FF920F931F936F
S11313C0CF93DF93A0EDB2E01092D002F8E56F2E38
S11313D0F2E07F2E81E080935802C0EED1E01092BB
S11313E0E00118E6812E11E0912E8093680110929D
S11313F0D102809359021092E1018093690130E493
S11314003093D20201E400935A023093E2018093B4
S11314106A0150EC5093D30291ECD92ED0925B0226
S11314205093E30180936B013093D40200935C02E8
S11314303093E40180936C011092D50280935D0295
S11314401092E50180936D011092D60280935E02A2
S11314501092E60180936E0178E07093D70229E040
S113146020935F021092E70120936F011092D8023B
S1131470809360021092E801809370017093D90206
S1131480209361021092E9012093710148E2B42E85
S1131490B092DA0269E2F62EF09262021092EA0148
S11314A0F09272017093DB02209363021092EB01BD
S11314B0209373011092DC02809364021092EC0179
S11314C0809374011092DD02809365021092ED0105
S11314D0809375011092DE02809366021092EE01F1
S11314E0809376011092DF02809367021092EF01DD
S11314F080937701E0E8CE2EC092E00297E89093C3
S11315006802C092F00147E0409378015093E102F1
S113151097EC909369025093F101409379013093D1
S1131520E20200936A023093F20180937A011092EE
S1131530E30280936B021092F30180937B0110927B
S1131540E40280936C021092F40180937C01109267
S1131550E5029FE090936D021092F50190937D0156
S11315601092E60290936E021092F60190937E011F
S11315701092E70280936F021092F70180937F012B
S11315801092E802809370021092F8018093800117
S11315901092E902909371021092F90190938101E3
S11315A01092EA02909372021092FA0190938201CF
S11315B01092EB02809373021092FB0180938301DB
S11315C01092EC02809374021092FC0180938401C7
S11315D01092ED02909375021092FD019093850193
S11315E01092EE02909376021092FE01909386017F
S11315F01092EF02809377021092FF01809387018B
S11316001092F00280937802109200028093880175
S11316107093F102209379021092010220938901C0
S11316201092F20280937A021092020280938A014D
S11316301092F30280937B021092030280938B0139
S11316403093F40200937C023093040280938C0163
S11316505093F502D0927D025093050280938D0140
S113166010EE1093F60210937E021093060210926D
S11316708E013093F70230937F0230930702109269
S11316808F011092F80280938002109208028093D6
S11316909001F4E0EF2EE092F90265E0609381029C
S11316A01092090260939101E092FA02609382021F
S11316B010920A026093920160E1E62EE092FB022E
S11316C061E16093830210920B0260939301E092B4
S11316D0FC026093840210920C0260939401E092E5
S11316E0FD026093850210920D0260939501E092D1
S11316F0FE026093860210920E026093960110928D
S1131700FF028093870210920F0280939701109238
S11317100003809388021092100280939801109223
S113172001031092890210921102109299011092F1
S1131730020310928A021092120210929A011092DD
S1131740030310928B021092130210929B01E092F9
S1131750040360938C021092140260939C0164E170
S11317606093050365E160938D0210921502609306
S11317709D011092060380938E02109216028093AC
S11317809E011092070380938F0210921702809398
S11317909F0168E46093080369E4609390023093C6
S11317A018022093A00168EC6093090369EC60932C
S11317B09102509319022093A10150930A03D092ED
S11317C0920250931A028093A201C0920B0361E823
S11317D060939302C0921B028093A30170930C0345
S11317E02093940210921C022093A401DD961C9273
S11317F0DD97F30185AF1DAEF40185AFDE96BC9293
S1131800DE97F301F6AE1EAEF401F6AEDF961C923F
S1131810F30187AF1FAEF40187AF709310032093D9
S11318209802109220022093A80110921103809331
S11318309902109221028093A901109212038093BD
S11318409A02109222028093AA01E0E2E093130329
S113185061E260939B02109223026093AB01E093D8
S1131860140360939C02109224026093AC011092C2
S1131870150380939D02109225028093AD0110926E
S1131880160380939E02109226028093AE01B092BA
S11318901703F0929F0210922702F092AF01E09397
S11318A018036093A002109228026093B001109272
S11318B019038093A102109229028093B10110921E
S11318C01A038093A20210922A028093B201A2E02A
S11318D0A0931B0363E06093A30210922B02609316
S11318E0B301F6E0F0931C034093A40210922C027F
S11318F04093B401EEE0E0931D039093A50210928F
S11319002D029093B50110921E038093A6021092AB
S11319102E028093B601E0931F039093A7021092C6
S11319202F029093B701F09320034093A8021092E2
S113193030024093B801B2E4B0932103B3E4B0930E
S1131940A902309331026093B90150932203D092DB
S1131950AA02509332028093BA0130932303009376
S1131960AB02309333028093BB01A09324036093B2
S1131970AC02109234026093BC01F09325034093AF
S1131980AD02109235024093BD01E093260390937B
S1131990AE02109236029093BE01E0932703909317
S11319A0AF02109237029093BF0110922803109255
S11319B0B002109238021092C001E0932903909370
S11319C0B102109239029093C101F0932A0340931B
S11319D0B20210923A024093C201A0932B03609387
S11319E0B30210923B026093C30110922C038093C4
S11319F0B40210923C028093C40110922D034093D0
S1131A00B50210923D024093C50110922E034093FB
S1131A10B60210923E024093C60110922F038093A7
S1131A20B70210923F028093C70110923003809353
S1131A30B802109240028093C8017093310320933E
S1131A40B902109241022093C9017093320320938A
S1131A50BA02109242022093CA0110923303809377
S1131A60BB02109243028093CB0110923403809303
S1131A70BC02109244028093CC01A093350360937E
S1131A80BD02109245026093CD01F093360340935A
S1131A90BE02109246024093CE01E0933703909326
S1131AA0BF02109247029093CF015EE15093380336
S1131AB04FE14093C002109248024093D00110922B
S1131AC039038093C102109249028093D10110928C
S1131AD03A038093C20210924A028093D201109278
S1131AE03B038093C30210924B028093D301109264
S1131AF03C038093C40210924C028093D401109250
S1131B003D038093C50210924D028093D50130931A
S1131B103E030093C60230934E028093D601109385
S1131B203F0361EE6093C70210934F028093D70185
S1131B30109340036093C802109350028093D8011D
S1131B406EE4609341036FE46093C90230935102E1
S1131B502093D901509342034093CA021092520237
S1131B6029E12093DA0138E1309343032093CB0237
S1131B70109253022093DB01509344034093CC0210
S1131B80109254024093DC01E09345039093CD02FC
S1131B90109255029093DD01109246038093CE0279
S1131BA0109256028093DE01109247038093CF0275
S1131BB0109257028093DF01DF91CF911F910F9113
S1131BC0FF90EF90DF90CF90BF909F908F907F9089
S1131BD06F900895AF92BF92DF92EF92FF920F93AE
S1131BE01F93CF93DF93A0EDB2E01092D00278E57B
S1131BF0A72E72E0B72E10925802C0EED1E0FF2457
S1131C00FA94F092E00188E691E0F0926801109273
S1131C10D1021092590221E02093E101209369013D
S1131C201092D20210925A022093E20120936A0188
S1131C301092D30210925B022093E30120936B0174
S1131C401092D40210925C022093E40120936C0160
S1131C501092D50210925D022093E50120936D014C
S1131C6048E04093D60240935E022093E60129E0C7
S1131C7020936E014093D70240935F0221E82093A2
S1131C80E70159E850936F014093D80240936002F2
S1131C902093E801509370014093D902409361026C
S1131CA02093E901509371011092DA0210926202BA
S1131CB02093EA01209372011092DB0210926302D6
S1131CC02093EB01209373011092DC0210926402C2
S1131CD033E83093EC01309374011092DD021092DA
S1131CE065022093ED01209375011092DE0210929B
S1131CF0660207E80093EE01009376011092DF027A
S1131D00109267022093EF01209377011092E00272
S1131D10109268021FE81093F0011093780110925A
S1131D20E102109269022093F1012093790110924B
S1131D30E20210926A021093F20110937A01109257
S1131D40E30210926B022093F30120937B01109223
S1131D50E40210926C020093F40100937C0110924F
S1131D60E50210926D022093F50120937D011092FB
S1131D70E60210926E022093F60120937E011092E7
S1131D80E70210926F022093F70120937F011092D3
S1131D90E8021092700279E97093F801709380015F
S1131DA01092E902109271025093F901509381014B
S1131DB01092EA02109272027093FA0170938201F7
S1131DC01092EB021092730261E96093FB0160933D
S1131DD083011092EC02109274027093FC017093D0
S1131DE084011092ED02109275025093FD015093FC
S1131DF085011092EE02109276027093FE017093A8
S1131E0086011092EF02109277022093FF01209333
S1131E1087011092F002109278022093000220931E
S1131E2088011092F1021092790261EB6093010231
S1131E30609389011092F20210927A026DEF60931E
S1131E40020260938A011092F30210927B026DECFD
S1131E506093030260938B011092F40210927C024F
S1131E602093040220938C011092F50210927D02BB
S1131E7069EC6093050260938D011092F602109252
S1131E807E026093060260938E011092F702109214
S1131E907F02E9EFEE2EE0920702E0928F011092AA
S1131EA0F80210928002209308022093900110926D
S1131EB0F90210928102F1ECDF2ED0920902D09245
S1131EC091011092FA0210928202E0920A02E092C8
S1131ED092011092FB021092830250930B025093D2
S1131EE093011092FC021092840270930C0270937E
S1131EF094011092FD021092850220930D0220930A
S1131F0095011092FE0210928602EDE9EE2EE09207
S1131F100E02E09296011092FF0210928702E09264
S1131F200F02E0929701109200031092880220930E
S1131F301002209398011092010310928902609379
S1131F401102609399011092020310928A02609325
S1131F50120260939A011092030310928B0260E8BC
S1131F606093130260939B011092040310928C02FD
S1131F706093140260939C011092050310928D02E9
S1131F802093150220939D011092060310928E0255
S1131F905093160250939E011092070310928F02E1
S1131FA05093170250939F011092080310929002CD
S1131FB0509318025093A0011092090310929102B9
S1131FC0209319022093A10110920A031092920205
S1131FD020931A022093A20110920B0310929302F1
S1131FE020931B022093A30110920C0310929402DD
S1131FF020931C022093A401DD961C92DD97F50129
S113200015AE2DAFFC0125AFDE961C92DE97F501CF
S113201016AE2EAFFC0126AFDF961C92DF97F501BA
S113202017AE2FAFFC0127AF1092100386E0809308
S11320309802209320020093A80110921103809328
S11320409902209321020093A90110921203109285
S11320509A02209322022093AA0110921303109251
S11320609B02209323022093AB01109214039EE061
S113207090939C02209324021093AC0110921503B8
S113208090939D02209325021093AD0110921603A4
S113209010929E02209326022093AE011092170301
S11320A010929F02209327022093AF0110921803ED
S11320B08093A002209328020093B0011092190388
S11320C08093A102209329020093B10110921A0374
S11320D01092A20260932A026093B20110921B0331
S11320E01092A30260932B026093B30110921C031D
S11320F01092A40260932C026093B40110921D0309
S11321001092A50230932D023093B50110921E0354
S11321101092A60260932E026093B60110921F03E0
S11321201092A70260932F026093B70110922003CC
S11321301092A802209330022093B8011092210338
S11321401092A902209331022093B9011092220324
S11321501092AA02209332022093BA011092230310
S11321601092AB02209333022093BB0110922403FC
S11321701092AC02309334023093BC0110922503C8
S11321801092AD0287E0809335028093BD011092D6
S113219026031092AE028FE0809336028093BE0134
S11321A0109227031092AF02109237021092BF01CF
S11321B082E4809328038093B002109238028093C3
S11321C0C001109229031092B102109239021092A8
S11321D0C10110922A031092B20240933A02409332
S11321E0C20110922B031092B30240933B0240931E
S11321F0C30110922C031092B40240933C0240930A
S1132200C40110922D031092B50240933D024093F5
S1132210C50110922E031092B60240933E024093E1
S1132220C60110922F031092B70210923F0210922F
S1132230C701109230031092B8021092400210921B
S1132240C801809331038093B902109241028093B4
S1132250C901809332038093BA02109242028093A0
S1132260CA01109233031092BB02109243021092DF
S1132270CB01109234031092BC02109244021092CB
S1132280CC01109235031092BD0230934502309375
S1132290CD01109236031092BE0230934602309361
S11322A0CE01109237031092BF023093470230934D
S11322B0CF01109238031092C00230934802309339
S11322C0D001109239031092C10230934902309325
S11322D0D10110923A031092C20230934A02309311
S11322E0D20110923B031092C30230934B023093FD
S11322F0D30110923C031092C40230934C023093E9
S1132300D40110923D031092C50230934D023093D4
S1132310D50110923E031092C60230934E023093C0
S1132320D60110923F031092C70220934F022093CC
S1132330D701109240031092C802209350022093B8
S1132340D801109241031092C90210935102509384
S1132350D901109242031092CA028FE9809352026B
S11323607093DA01109243031092CB0270935302DC
S11323707093DB01109244031092CC0280935402B8
S11323808093DC01109245031092CD021093550204
S11323901093DD01109246031092CE022093560250
S11323A02093DE01109247031092CF02F09257025D
S11323B0F092DF01DF91CF911F910F91FF90EF9089
S11323C0DF90BF90AF9008954F925F926F927F928B
S11323D08F929F92BF92CF92DF92EF92FF920F93D0
S11323E01F93CF93DF93A0EDB2E081E08093D002FE
S11323F0F8E54F2EF2E05F2E80935802C0EE8C2E4B
S1132400C1E09C2E1092E001D8E66D2ED1E07D2E25
S11324108093680191E89093D10290935902C0E8A7
S1132420C093E1018093690191EC9093D20290935F
S11324305A0210EC1093E20180936A0101E4F02E39
S1132440F092D302F0925B0250E45093E301809344
S11324506B018093D40280935C021092E401809318
S11324606C018093D50280935D021092E501809304
S11324706D018093D60280935E021092E6018093F0
S11324806E0161E16093D70260935F0220E12093C3
S1132490E70180936F0191E3B92EB092D802B09214
S11324A0600230E3C32EC092E80180937001609310
S11324B0D902609361022093E901809371018093B2
S11324C0DA02809362021092EA0180937201109200
S11324D0DB02109263021092EB01109273011092CE
S11324E0DC0232E0309364021092EC013093740108
S11324F08093DD0243E0E42EE09265021092ED0148
S113250030937501C093DE0292E890936602C09303
S1132510EE0130937601C093DF02C0936702C0934B
S1132520EF01109277011092E0021092680210926B
S1132530F001109278011092E10294E09093690204
S11325401092F10190937901E092E20247E2409304
S11325506A021092F20144E240937A017BE17093A3
S1132560E302EFE3DE2ED0926B021092F30140936C
S11325707B017093E402D0926C021092F4014093B8
S11325807C011092E50240936D021092F501409394
S11325907D011092E60210926E021092F6011092E2
S11325A07E011092E70230936F021092F70130938C
S11325B07F018093E802E09270021092F801309358
S11325C080011092E902309371021092F901309364
S11325D081011092EA0238E0309372021092FA01FB
S11325E03093820177E07093EB020FE00093730263
S11325F01092FB01309383017093EC0200937402F8
S11326001092FC01309384011092ED023093750214
S11326101092FD01309385011092EE02D0E2D09326
S113262076021092FE01D09386014FE14093EF02AF
S1132630D09277021092FF01D09387014093F00269
S1132640D092780210920002D09388011092F10285
S1132650D093790210920102D09389011092F20270
S113266010927A021092020210928A012093F302CD
S113267060937B022093030280938B01C092F40247
S1132680B0927C02C092040280938C012093F502E4
S113269060937D022093050280938D011092F602CF
S11326A010927E021092060210928E019093F7020D
S11326B090937F021092070290938F019093F802F7
S11326C09093800210920802909390011092F90264
S11326D01092810210920902109291011092FA0252
S11326E01092820210920A02109292011092FB023E
S11326F08093830210920B02809393011092FC0248
S11327006093840210920C0260939401FEE0DF2E29
S1132710D092FD024093850210920D0260939501C0
S11327201092FE026093860210920E02609396014C
S11327301092FF021092870210920F0210929701DA
S113274010920003109288021092100210929801C5
S113275010920103109289021092110210929901B1
S11327601092020330938A021092120230939A015B
S113277067E4609303036FE460938B025093130246
S113278030939B011093040368EC60938C021093C4
S1132790140230939C015093050350938D0250937F
S11327A0150210929D011092060310928E0210924F
S11327B0160210929E011092070320938F0210922A
S11327C0170220939F0100930803409390021092F4
S11327D018022093A00100930903409391021092E0
S11327E019022093A10110920A03209392021092DD
S11327F01A022093A20110920B03109293021092DA
S11328001B021092A30110920C03109294021092D6
S11328101C021092A401DD963C93DD97F20135AFC2
S1132820F40115AEF30135AFDE963C93DE97F20169
S113283036AFF40116AEF30136AFDF961C92DF9784
S1132840F20117AEF40117AEF30117AE10921003A4
S113285010929802109220021092A8011092110373
S113286010929902109221021092A90134E430933B
S1132870120330939A02509322029093AA0134ECEB
S11328803093130330939B02109323029093AB0174
S11328901093140310939C02109324021092AC0121
S11328A0C0931503C0939D02C09325021092AD01FD
S11328B01092160310929E02109226021092AE01FC
S11328C01092170390939F02109227029093AF01E6
S11328D0E09218037093A002109228029093B00122
S11328E0109219039093A102109229029093B101BE
S11328F010921A031092A20210922A021092B201AC
S113290010921B031092A30210922B021092B30197
S113291010921C032093A40210922C022093B40161
S113292000931D034093A50210922D022093B5013C
S113293000931E034093A60210922E022093B60128
S113294000931F034093A70210922F022093B70114
S1132950009320034093A802109230022093B80100
S1132960109221032093A902109231022093B901FD
S1132970109222031092AA02109232021092BA010B
S1132980109223031092AB02109233021092BB01F7
S1132990509324035093AC02509334021092BC0120
S11329A020EE209325032093AD022093350210924C
S11329B0BD01109326033093AE0210933602909318
S11329C0BE0133E83093270337E83093AF02C09356
S11329D037029093BF01E09228037093B0021092E3
S11329E038029093C001109229039093B10210927F
S11329F039029093C10110922A031092B2021092EC
S1132A003A021092C20110922B031092B302109258
S1132A103B021092C30110922C031092B402109244
S1132A203C021092C401D0932D03D093B5021092AE
S1132A303D02D093C50191E290932E039093B60288
S1132A4010923E029093C60180932F038093B702A5
S1132A5010923F028093C701809330038093B802A1
S1132A60109240028093C801809331038093B9028D
S1132A70109241028093C901809332038093BA0279
S1132A80109242028093CA01809333038093BB0265
S1132A90109243028093CB01809334038093BC0251
S1132AA0109244028093CC01709335037093BD025D
S1132AB0109245027093CD01709336037093BE0259
S1132AC0109246027093CE01409337034093BF02A5
S1132AD0109247024093CF01409338034093C002C1
S1132AE0109248024093D001809339038093C1022D
S1132AF0109249028093D10180933A038093C202D9
S1132B0010924A028093D201F0923B03F092C302E6
S1132B1050934B028093D30191EE90933C03909396
S1132B20C40220934C028093D40190933D0390936C
S1132B30C50220934D028093D501F0923E03F0929A
S1132B40C60250934E028093D60180933F03809334
S1132B50C70210924F028093D70180934003809361
S1132B60C8029EE1909350028093D8018093410360
S1132B708093C9022EE3209351028093D90180935C
S1132B8042038093CA023EE6309352028093DA01F4
S1132B90809343038093CB0248EF40935302809386
S1132BA0DB01809344038093CC02309354028093DE
S1132BB0DC01809345038093CD02209355028093DA
S1132BC0DD01809346038093CE0290935602809356
S1132BD0DE01809347038093CF02109257028093C3
S1132BE0DF01DF91CF911F910F91FF90EF90DF9064
S1132BF0CF90BF909F908F907F906F905F904F90F9
S1132C000895CF92DF92EF92FF920F931F93CF9389
S1132C10DF93A0EDB2E01092D002C8E5CC2EC2E062
S1132C20DC2E10925802C0EED1E01FE81093E001B0
S1132C3088E691E0109368011092D1021092590233
S1132C401093E101109369011092D20210925A027A
S1132C5077E87093E20170936A011092D3021092A4
S1132C605B0203E8F02EF092E301F0926B01109204
S1132C70D40210925C0241EC4093E40140936C0155
S1132C801092D50210925D024093E50140936D01CC
S1132C901092D60210925E024093E60140936E01B8
S1132CA01092D70210925F024093E70140936F01A4
S1132CB01092D802109260024093E8014093700190
S1132CC051E05093D9021092610220EC2093E90163
S1132CD0209371015093DA02109262022093EA0168
S1132CE0209372011092DB02109263024093EB0175
S1132CF0409373011092DC02109264024093EC0141
S1132D00409374011092DD02109265024093ED012C
S1132D10409375011092DE02109266024093EE0118
S1132D20409376011092DF02109267024093EF0104
S1132D30409377011092E0021092680221EEE22E95
S1132D40E092F001E09278011092E102109269029F
S1132D5021E82093F101209379011092E20210926C
S1132D606A022093F20120937A015093E3021092B5
S1132D706B0230E83093F30130937B015093E4020B
S1132D8010926C023093F40130937C011092E502AE
S1132D9010926D022093F50120937D011092E602BA
S1132DA010926E022093F60120937E011092E702A6
S1132DB010926F022093F70120937F011092E80292
S1132DC0109270022093F801209380015093E9023D
S1132DD0109271023093F901309381015093EA0209
S1132DE0109272023093FA013093820160E2609390
S1132DF0EB026093730237EC3093FB0107EE009310
S1132E0083011092EC02109274023093FC0130930F
S1132E1084011092ED02109275023093FD013093FB
S1132E2085011092EE02109276023093FE013093E7
S1132E3086011092EF02109277023093FF013093D3
S1132E4087011092F00210927802309300023093BE
S1132E5088011092F10210927902309301023093AA
S1132E6089011092F20210927A0230930202309396
S1132E708A016093F30260937B0230930302009310
S1132E808B011092F40210927C023093040230936E
S1132E908C011092F50210927D023093050230935A
S1132EA08D011092F60210927E0230930602309346
S1132EB08E011092F70210927F0230930702309332
S1132EC08F011092F802109280023093080230931E
S1132ED090016093F9026093810230930902009398
S1132EE091011092FA021092820230930A023093F6
S1132EF092011092FB021092830230930B023093E2
S1132F0093011092FC021092840230930C023093CD
S1132F1094011092FD021092850230930D023093B9
S1132F2095011092FE021092860230930E023093A5
S1132F3096011092FF021092870230930F02309391
S1132F40970110920003109288023093100230937C
S1132F5098016093010360938902309311020093F6
S1132F6099011092020310928A0230931202309354
S1132F709A011092030310928B0230931302309340
S1132F809B011092040310928C023093140230932C
S1132F909C011092050310928D0230931502309318
S1132FA09D011092060310928E0220931602209324
S1132FB09E011092070310928F0220931702209310
S1132FC09F0152E0509308035093900220931802FB
S1132FD0F092A00110920903109291022093190219
S1132FE02093A10110920A031092920220931A02D4
S1132FF02093A20160930B036093930240931B02FE
S1133000E092A30110920C031092940220931C02EC
S11330102093A401DD961C92DD97F60115AE2DAF29
S1133020FC0125AFDE961C92DE97F60116AE2EAF9C
S1133030FC0126AFDF965C93DF97F60157AF2FAF05
S1133040FC01F7AE10921003109298022093200214
S11330502093A80110921103109299022093210247
S11330602093A9016093120360939A024093220271
S1133070E092AA011092130310929B022093230260
S11330802093AB011092140310929C02209324020B
S11330902093AC011092150310929D0220932502F7
S11330A02093AD015093160350939E022093260261
S11330B0F092AE011092170310929F022093270200
S11330C02093AF01109218031092A00220932802BB
S11330D02093B001109219031092A1024093290287
S11330E04093B10110921A031092A20240932A0253
S11330F04093B20110921B031092A30240932B023F
S11331004093B30110921C031092A40240932C022A
S11331104093B40110921D031092A50220932D0236
S11331202093B50110921E031092A60220932E0242
S11331302093B60110921F031092A70299E890936E
S11331402F029093B701109220031092A8022093AB
S113315030022093B801109221031092A902209307
S113316031022093B901109222031092AA02909383
S113317032029093BA01109223031092AB0220936F
S113318033022093BB01109224031092AC022093CB
S113319034022093BC01109225031092AD02909347
S11331A035029093BD01109226031092AE02209333
S11331B036022093BE01109227031092AF0220938F
S11331C037022093BF01109228031092B00270932B
S11331D038027093C001109229031092B1027093C7
S11331E039027093C10110922A031092B2027093B3
S11331F03A027093C20110922B031092B3022093EF
S11332003B022093C30110922C031092B40220932A
S11332103C022093C40110922D031092B502309306
S11332203D023093C50110922E031092B6023093E2
S11332303E023093C60110922F031092B7023093CE
S11332403F023093C70183E0809330035093B80268
S113325036EC309340023093C8018093310350938D
S1133260B90232E8309341023093C90180933203AA
S11332705093BA02509342025093CA01809333038D
S11332805093BB02509343025093CB018093340379
S11332905093BC02509344025093CC018093350365
S11332A05093BD02509345025093CD018093360351
S11332B05093BE02509346025093CE01809337033D
S11332C05093BF02509347025093CF018093380329
S11332D05093C002509348025093D0018CE38093E2
S11332E039038093C10283EC809349028FEF80936A
S11332F0D10110923A031092C20200934A02009341
S1133300D20110923B031092C30220934B022093EC
S1133310D30110923C031092C40220934C022093D8
S1133320D40110923D031092C50220934D022093C4
S1133330D50110923E031092C60220934E022093B0
S1133340D60110923F031092C70220934F0220939C
S1133350D701109240031092C80220935002209388
S1133360D801109241031092C90220935102209374
S1133370D901109242031092CA0210935202209370
S1133380DA01109243031092CB02909353022093DC
S1133390DB01109244031092CC0210935402209348
S11333A0DC01109245031092CD0220935502209324
S11333B0DD01109246031092CE0220935602209310
S11333C0DE01109247031092CF028093570280933C
S11333D0DF01DF91CF911F910F91FF90EF90DF906C
S11333E0CF9008950F931F93CF93DF930F92CDB790
S11333F0DEB790916701891751F0823009F477C0E4
S1133400833018F1833009F48BC08430D9F1809172
S113341043038660809343038091530286608093C4
S113342053028091CB0286608093CB028FEF80930E
S1133430F40081E080937E0483E080937F040F9006
S1133440DF91CF911F910F910895813001F7898306
S11334500E94D50920EC31E0309377042093760460
S11334602BE231E0309379042093780410927B04AA
S113347010927A0410925C04898180935D04809395
S11334805E04C5CF0E94011680E091E0909377041A
S11334908093760480E690E0909379048093780496
S11334A010927B0410927A0481E080935C048093F0
S11334B05D0480935E0460EE71E0A8E5B2E000ED87
S11334C012E090E03C91F8012081822F83238095C3
S11334D0FB01408184238193BF01382B3D93822BD0
S11334E0F80181938F019F5F983761F790CF0E9415
S11334F0EA0D88E890E090937704809376048CE357
S113350090E0909379048093780410927B04109255
S11335107A0410925C0410925D0410925E0477CFDA
S11335200E94E41180EC91E09093770480937604F8
S11335308BE291E0909379048093780410927B0459
S113354010927A0410925C0481E080935D0480936D
S11335505E045DCF2F923F924F925F926F927F9263
S11335608F929F92AF92BF92CF92DF92EF92FF928F
S11335700F931F93CF93DF93CDB7DEB7AD970FB6FD
S1133580F894DEBF0FBECDBF8091F400803709F4FC
S1133590D1C28F5F8093F400882309F0E4C2A09025
S11335A0D002BB248090580299246090E0017724D3
S11335B04090D10255242090590233248091E10196
S11335C0282F30E03A8F298F8091D202E82FF0E043
S11335D0FEA3EDA380915A02282F30E038A72FA331
S11335E08091E201E82FF0E0FCA3EBA38091D302E9
S11335F0282F30E03C8F2B8F80915B02E82FF0E086
S1133600FAA3E9A38091E301282F30E03E8F2D8FA8
S11336108091D402E82FF0E0F8A3EF8F80915C0250
S1133620282F30E03C832B838091E401E82FF0E0E5
S1133630FE83ED838091D502282F30E03E8B2D8BC5
S113364080915D02E82FF0E0F88FEF8B8091E50127
S1133650282F30E03C8B2B8B8091D602E82FF0E0B2
S1133660F88BEF8780915E02282F30E03A8B298B0C
S11336708091E601E82FF0E0FC87EB878091D70288
S1133680282F30E03E872D8780915F02E82FF0E0FD
S1133690FA87E9878091E701282F30E038872F8364
S11336A0AAE5B3E0CD014596BD016A5E7F4F8D0169
S11336B00E5E1F4F43E1E42EF12CEA0EFB1ECC24D8
S11336C0DD249A83898340E850E00C2C02C0559590
S11336D047950A94E2F7CA018A219B21009709F4CD
S11336E0EFC588E08C93CA0188219921009709F4D9
S11336F0EFC588E011968C931197CA018621972112
S1133700009709F4EFC598E012969C9312971196CE
S11337108C9111972C91822B892BD9F42CE534E0D0
S113372083E08DA789819A819AA789A7BCA7ABA7B3
S1133730F9019D0183E0DF01EBA5FCA50D90019249
S1133740FCA7EBA78150D1F7D90129A53AA53A8363
S11337502983CA0184219521009709F4C5C588E00D
S113376013968C931397CA0182219321009709F42D
S1133770C5C588E014968C931497898D9A8D8423FB
S11337809523009709F4E2C598E015969C93159744
S113379014968C91149713962C911397822B892B42
S11337A0E9F4FD0133962CE534E083E08DA78981AB
S11337B09A819AA789A7FCA7EBA7F9019D0183E049
S11337C0DF01EBA5FCA50D900192FCA7EBA78150AE
S11337D0D1F7D90129A53AA53A8329838DA19EA1C0
S11337E084239523009709F4AFC588E016968C933B
S11337F016978FA198A584239523009709F4A2C551
S113380088E017968C9317978BA19CA1842395230A
S1133810009709F495C598E018969C931897179605
S11338208C91179716962C911697822B892BE9F475
S1133830FD0136962CE534E083E08DA789819A81D9
S11338409AA789A7FCA7EBA7F9019D0183E0DF01F3
S1133850EBA5FCA50D900192FCA7EBA78150D1F735
S1133860D90129A53AA53A8329838B8D9C8D84237C
S11338709523009709F462C588E019968C931997EB
S113388089A19AA184239523009709F455C588E05A
S11338901A968C931A978D8D9E8D84239523009769
S11338A009F448C598E01B969C931B971A968C9133
S11338B01A9719962C911997822B892BE9F4FD01FB
S11338C039962CE534E083E08DA789819A819AA703
S11338D089A7FCA7EBA7F9019D0183E0DF01EBA514
S11338E0FCA50D900192FCA7EBA78150D1F7D9015B
S11338F029A53AA53A8329838F8D98A184239523FA
S1133900009709F415C588E01C968C931C978B814D
S11339109C8184239523009709F408C588E01D96AB
S11339208C931D978D819E8184239523009709F4A0
S1133930FBC498E01E969C931E971D968C911D9730
S11339401C962C911C97822B892BE9F4FD013C9643
S11339502CE534E083E08DA789819A819AA789A711
S1133960FCA7EBA7F9019D0183E0DF01EBA5FCA512
S11339700D900192FCA7EBA78150D1F7D90129A59D
S11339803AA53A8329838D899E89842395230097B8
S113399009F4C8C488E01F968C931F978F89988D6B
S11339A084239523009709F4BBC488E050968C9334
S11339B050978B899C8984239523009709F4AEC47E
S11339C098E051969C93519750968C9150971F96DE
S11339D02C911F97822B892BE9F4FD013F962CE54E
S11339E034E083E08DA789819A819AA789A7FCA7EF
S11339F0EBA7F9019D0183E0DF01EBA5FCA50D9088
S1133A000192FCA7EBA78150D1F7D90129A53AA5CA
S1133A103A8329838F85988984239523009709F411
S1133A207BC488E0F801808389899A89842395235B
S1133A30009709F465C488E0F70180838B859C8531
S1133A4084239523009709F465C498E054969C93C5
S1133A505497F7018081F8012081822B892BE9F4A6
S1133A60FD0172962CE534E083E08DA789819A816B
S1133A709AA789A7FCA7EBA7F9019D0183E0DF01C1
S1133A80EBA5FCA50D900192FCA7EBA78150D1F703
S1133A90D90129A53AA53A8329838D859E85842356
S1133AA09523009709F458C488E0E981FA8180835A
S1133AB089859A8584239523009709F44BC488E06B
S1133AC0FB018083CA012F813885822393230097C9
S1133AD009F43EC498E057969C935797FB01808164
S1133AE0E981FA812081822B892B69F4FD01759685
S1133AF02CE534E083E0A9019D01DA010D900192E7
S1133B008150E1F7D9010894C11CD11C5896298130
S1133B103A81285E3F4F3A832983685E7F4F085E6F
S1133B201F4F88E190E0E80EF91E98E0C916D10411
S1133B3009F0C9CDAD960FB6F894DEBF0FBECDBF68
S1133B40DF91CF911F910F91FF90EF90DF90CF9075
S1133B50BF90AF909F908F907F906F905F904F90A9
S1133B603F902F90089590915D0390935A03909104
S1133B705E0390935B0390915F0390935C03909139
S1133B80600390935D039091610390935E03909121
S1133B90620390935F039091630390936003909109
S1133BA064039093610390916503909362039091F1
S1133BB066039093630390916703909364039091D9
S1133BC068039093650390916903909366039091C1
S1133BD06A039093670390916B03909368039091A9
S1133BE06C039093690390916D0390936A03909191
S1133BF06E0390936B0390916F0390936C03909179
S1133C00700390936D039091710390936E03909160
S1133C10750390937203909176039093730390913C
S1133C207703909374039091780390937503909124
S1133C3079039093760390917A039093770390910C
S1133C407B039093780390917C03909379039091F4
S1133C507D0390937A0390917E0390937B039091DC
S1133C607F0390937C039091800390937D039091C4
S1133C70810390937E039091820390937F039091AC
S1133C808303909380039091840390938103909194
S1133C90850390938203909186039093830390917C
S1133CA08703909384039091880390938503909164
S1133CB089039093860390918D0390938A03909146
S1133CC08E0390938B0390918F0390938C03909128
S1133CD0900390938D039091910390938E03909110
S1133CE0920390938F0390919303909390039091F8
S1133CF094039093910390919503909392039091E0
S1133D0096039093930390919703909394039091C7
S1133D1098039093950390919903909396039091AF
S1133D209A039093970390919B0390939803909197
S1133D309C039093990390919D0390939A0390917F
S1133D409E0390939B0390919F0390939C03909167
S1133D50A00390939D039091A10390939E0390914F
S1133D60A5039093A2039091A6039093A30390912B
S1133D70A7039093A4039091A8039093A503909113
S1133D80A9039093A6039091AA039093A7039091FB
S1133D90AB039093A8039091AC039093A9039091E3
S1133DA0AD039093AA039091AE039093AB039091CB
S1133DB0AF039093AC039091B0039093AD039091B3
S1133DC0B1039093AE039091B2039093AF0390919B
S1133DD0B3039093B0039091B4039093B103909183
S1133DE0B5039093B2039091B6039093B30390916B
S1133DF0B7039093B4039091B8039093B503909153
S1133E00B9039093B6039091BD039093BA03909134
S1133E10BE039093BB039091BF039093BC03909116
S1133E20C0039093BD039091C1039093BE039091FE
S1133E30C2039093BF039091C3039093C0039091E6
S1133E40C4039093C1039091C5039093C2039091CE
S1133E50C6039093C3039091C7039093C4039091B6
S1133E60C8039093C5039091C9039093C60390919E
S1133E70CA039093C7039091CB039093C803909186
S1133E80CC039093C9039091CD039093CA0390916E
S1133E90CE039093CB039091CF039093CC03909156
S1133EA0D0039093CD039091D1039093CE0390913E
S1133EB0D5039093D2039091D6039093D30390911A
S1133EC0D7039093D4039091D8039093D503909102
S1133ED0D9039093D6039091DA039093D7039091EA
S1133EE0DB039093D8039091DC039093D9039091D2
S1133EF0DD039093DA039091DE039093DB039091BA
S1133F00DF039093DC039091E0039093DD039091A1
S1133F10E1039093DE039091E2039093DF03909189
S1133F20E3039093E0039091E4039093E103909171
S1133F30E5039093E2039091E6039093E303909159
S1133F40E7039093E4039091E8039093E503909141
S1133F50E9039093E6039091ED039093EA03909123
S1133F60EE039093EB039091EF039093EC03909105
S1133F70F0039093ED039091F1039093EE039091ED
S1133F80F2039093EF039091F3039093F0039091D5
S1133F90F4039093F1039091F5039093F2039091BD
S1133FA0F6039093F3039091F7039093F4039091A5
S1133FB0F8039093F5039091F9039093F60390918D
S1133FC0FA039093F7039091FB039093F803909175
S1133FD0FC039093F9039091FD039093FA0390915D
S1133FE0FE039093FB039091FF039093FC03909145
S1133FF000049093FD03909101049093FE0390912B
S11340000504909302049091060490930304909104
S113401007049093040490910804909305049091EC
S113402009049093060490910A04909307049091D4
S11340300B049093080490910C04909309049091BC
S11340400D0490930A0490910E0490930B049091A4
S11340500F0490930C049091100490930D0490918C
S1134060110490930E049091120490930F04909174
S1134070130490931004909114049093110490915C
S11340801504909312049091160490931304909144
S1134090170490931404909118049093150490912C
S11340A019049093160490E0079668E770E00E9464
S11340B0592DAC01FC01E053FD4F9081FA01E85AFF
S11340C0FD4F208140525E4FFA01808197FF74C1F9
S11340D038E030936F0327FF6DC138E030937003ED
S11340E087FF66C148E0409371033091700350919B
S11340F06F03352B342B49F4AFE6B3E0ECE5F4E081
S113410033E001900D923150E1F796FF4FC138E052
S11341103093870326FF48C138E03093880386FF35
S113412041C148E04093890330918803509187034B
S1134130352B342B49F4A7E8B3E0ECE5F4E033E0A5
S113414001900D923150E1F795FF2AC138E0309388
S11341509F0325FF23C138E03093A00385FF1CC1D2
S113416048E04093A1033091A00350919F03352B65
S1134170342B49F4AFE9B3E0ECE5F4E033E001902B
S11341800D923150E1F794FF05C138E03093B70345
S113419024FFFEC038E03093B80384FFF7C048E042
S11341A04093B9033091B8035091B703352B342BA6
S11341B049F4A7EBB3E0ECE5F4E033E001900D92B1
S11341C03150E1F793FFE0C038E03093CF0323FF91
S11341D0D9C038E03093D00383FFD2C048E0409385
S11341E0D1033091D0035091CF03352B342B49F4B4
S11341F0AFECB3E0ECE5F4E033E001900D92315024
S1134200E1F792FFBBC038E03093E70322FFB4C06C
S113421038E03093E80382FFADC048E04093E903FF
S11342203091E8035091E703352B342B49F4A7EE82
S1134230B3E0ECE5F4E033E001900D923150E1F7A6
S113424091FF96C038E03093FF0321FF8FC038E020
S11342503093000481FF82C048E040930104309110
S113426000045091FF03352B342B49F4AFEFB3E036
S1134270ECE5F4E033E001900D923150E1F790FF6A
S113428073C098E09093170420FF6CC098E090935B
S1134290180480FF65C098E0909319048091180475
S11342A020911704822B892B09F044CCA7E1B4E0B8
S11342B0ECE5F4E083E001900D928150E1F73ACC13
S11342C080E08C93CA0188219921009709F011CAD2
S11342D080E011968C931197CA018621972100974B
S11342E009F011CA90E010CA80E013968C931397DA
S11342F0CA0182219321009709F03BCA80E03ACA9F
S113430080E0F70180838B859C8584239523009727
S113431009F09BCB90E09ACB80E084CB90E051CB2A
S113432080E044CB80E037CB90E004CB80E0F7CA58
S113433080E0EACA90E0B7CA80E0AACA80E09DCAD9
S113434090E06ACA80E05DCA80E050CA90E01DCA6D
S113435090E0C1CB80E0B4CB80E0A7CB40E07DCF40
S113436090E09ACF90E093CF90E08CCF30E070CF84
S113437030E069CF40E052CF30E04BCF30E044CF63
S113438040E02DCF30E026CF30E01FCF40E008CF13
S113439030E001CF30E0FACE40E0E3CE30E0DCCED6
S11343A030E0D5CE40E0BECE30E0B7CE30E0B0CE87
S11343B040E099CE30E092CE30E08BCEEF92FF9287
S11343C00F931F93CF93DF93FC018091740480FFBC
S11343D05CC090915201992331F491E09093520181
S11343E09FE09093560186FF4AC192E09093720435
S11343F0A0915601AE5FA093560187FD51C0109263
S1134400540180915701B82F18160CF04CC165E087
S11344100E94382D913009F454C05091F400B150E9
S1134420B093570140917E04AF300CF498C04737E5
S1134430B8F4642F70E0B0917F04CB2FD0E0FB017F
S1134440E859FE4F818190E020E830E002C03595C4
S11344502795BA95E2F782239323009709F4AFC115
S1134460A0311CF084E180935601842F90E0851BD9
S113447091098430910514F00E94AA1ADF91CF911A
S11344801F910F91FF90EF90089581FDE5C0109268
S1134490720410925201A0E0A093560187FFAFCF9F
S11344A080915401882309F0ACCF809157011816EC
S11344B00CF0F3C0B82F65E00E94382D913009F05C
S11344C0ACCF40917F04442309F4A7CF60917E04CC
S11344D070E0FB01E859FE4F5081C42FD0E08E01FB
S11344E00150104020E830E0002E02C03595279599
S11344F00A94E2F7852F90E082239323009709F42E
S1134500BCC180916701833009F4B7C1843009F4D8
S113451027C22095252320835091F400651B71093F
S1134520FB01EE0FFF1FE60FF71FC801880F991F4D
S1134530800F911F880F991F880F991F880F991F4B
S1134540E80FF91FE65AFC4F108211821282BFEF66
S1134550B093570140917E04AF300CF068CFA23F76
S11345600CF07ECF541708F091C0642F70E0B09126
S11345707F04CB2FD0E0FB01E959FE4F808190E00E
S113458020E830E002C035952795BA95E2F78223FA
S11345909323009709F07AC0442309F477C0052FC8
S11345A010E0CB01801B910BFC01EE0FFF1FE80F05
S11345B0F91F9E01220F331FC9018C0F9D1F880F05
S11345C0991F880F991F880F991FE80FF91FE65A42
S11345D0FC4FA3E8B4E083E00D9001928150E1F731
S11345E0415040937E0410925601642F70E0601B8A
S11345F0710B8B01000F111FF801E60FF71FC901A2
S11346008C0F9D1F880F991F880F991F880F991F62
S1134610E80FF91FA3E8B4E0E65AFC4F83E00190E9
S11346200D928150E1F7F801E60FF71F2C0F3D1FA3
S1134630220F331F220F331F220F331FE20FF31FEA
S1134640E65AFC4FA0E8B4E083E00D90019281505B
S1134650E1F740917E0409CF90915201992331F4FE
S113466091E09093520191EF9093560186FFA0C080
S11346709EEF90937204A0915601A2500DCF91E049
S113468090937204A0915601AF5F06CFA13F0CF046
S1134690E7CE81EF80935601E8CE40917F04473006
S11346A008F441C1B82F8C3F0CF079C060917F04AD
S11346B0673008F071C0C0917E04D0E0062F10E08E
S11346C098012F5F3F4F40E850E002C05595479551
S11346D02A95E2F7FE01E859FE4F208130E042239B
S11346E053234115510509F05AC05091F400C51BDC
S11346F0D1099E01220F331FF901EC0FFD1FC801E0
S1134700880F991F800F911F880F991F880F991F79
S1134710880F991FE80FF91FE65AFC4FA3E8B4E08D
S113472083E00D9001928150E1F76F5F60937F0405
S113473070E0F901EC0FFD1F8B01000F111FC80180
S1134740860F971F880F991F880F991F880F991F2D
S1134750E80FF91FA3E8B4E0E65AFC4F83E00190A8
S11347600D928150E1F7C20FD31F600F711F660FC6
S1134770771F660F771F660F771FC60FD71FC65A9E
S1134780DC4FE0E8F4E083E0019009928150E1F726
S1134790A0915601BFEFDCCE673009F46BC08B3FAC
S11347A00CF03BCEA0915601BAEF5091F40038CEF4
S11347B09FEF90937204A0915601A1506DCE052FE6
S11347C010E0CB01801B910BFC01EE0FFF1FE80FE3
S11347D0F91FBE01660F771FCB018C0F9D1F880F39
S11347E0991F880F991F880F991FE80FF91FE65A20
S11347F0FC4FA3E8B4E083E00D9001928150E1F70F
S11348004F5F40937E0410925601242F30E0201B0A
S1134810310B8901000F111FF801E20FF31FCB01C7
S11348208C0F9D1F880F991F880F991F880F991F40
S1134830E80FF91FA3E8B4E0E65AFC4F83E00190C7
S11348400D928150E1F7F801E20FF31FC60FD71F55
S1134850CC0FDD1FCC0FDD1FCC0FDD1FEC0FFD1FB8
S1134860E65AFC4FA0E8B4E083E00D900192815039
S1134870E1F7EFCE83E0808301CE5091F400651B15
S113488071099B01220F331FF901E60FF71FCE01B7
S1134890880F991F8C0F9D1F880F991F880F991FD0
S11348A0880F991FE80FF91FE65AFC4FC3E8D4E0BC
S11348B083E0099001928150E1F7415040937F04D5
S11348C0042F10E0F901E60FF71F7801EE0CFF1C2E
S11348D0C701800F911F880F991F880F991F880F98
S11348E0991FE80FF91FC3E8D4E0E65AFC4F83E0B0
S11348F0019009928150E1F7F901E60FF71F0E0DBF
S11349001F1D000F111F000F111F000F111FE00FBB
S1134910F11FE65AFC4FC0E8D4E083E0099001920D
S11349208150E1F77CCD242F30E02F5F3F4F60E8CA
S113493070E002C0759567952A95E2F7C0917E04F0
S1134940D0E0C859DE4F288130E06223732361151B
S1134950710509F4A7CE81E080935401B0E1B3CD91
S11349605091F400BFEFF4CD8F929F92AF92BF921B
S1134970CF92DF92EF92FF920F931F93CF93DF9327
S113498040914D03842F90E08F709070009789F0D0
S11349904F5F4F7140934D03DF91CF911F910F9162
S11349A0FF90EF90DF90CF90BF90AF909F908F904B
S11349B008950E94CD2D817080934E030E94CD2DC9
S11349C0817080934F030E94CD2D8170809350039A
S11349D090914F0320914E03922B982B09F422C3FC
S11349E040914D03242F22952F7030E0AAE5B3E0C7
S11349F020FFD0C2EEE4F3E083E001900D928150F9
S1134A00E1F7C9010196BC0161707070ADE5B3E0D6
S1134A1080FFC8C2EEE4F3E083E001900D92815080
S1134A20E1F7E901C170D070E0E6F3E020FFC2C213
S1134A30AEE4B3E083E00D9001928150E1F7C90147
S1134A4003968C0101701070E3E6F3E080FFBAC2B4
S1134A50AEE4B3E083E00D9001928150E1F7E1E030
S1134A60EE2EF12CE222F322E6E6F3E020FFB2C2BE
S1134A70AEE4B3E083E00D9001928150E1F7C90107
S1134A80059651E0C52ED12CC822D922E9E6F3E0DF
S1134A9080FFA8C2AEE4B3E083E00D9001928150A0
S1134AA0E1F7B1E0AB2EB12CA222B322ECE6F3E0A5
S1134AB020FFA0C2AEE4B3E083E00D9001928150E8
S1134AC0E1F7C9010796A1E08A2E912C8822992248
S1134AD0EFE6F3E080FF96C2AEE4B3E083E00D902E
S1134AE001928150E1F7E2E7F3E06115710509F401
S1134AF091C2AEE4B3E083E00D9001928150E1F7FE
S1134B00E5E7F3E0AAE4B1E083E00D90019281507F
S1134B10E1F7E8E7F3E0AAE4B1E083E00D90019265
S1134B208150E1F7EBE7F3E0AAE4B1E083E00D9014
S1134B3001928150E1F7EEE7F3E0AAE4B1E083E00B
S1134B400D9001928150E1F7E1E8F3E0AAE4B1E0CD
S1134B5083E00D9001928150E1F7E4E8F3E0AAE4E8
S1134B60B1E083E00D9001928150E1F7B9016170E9
S1134B707070E7E8F3E020FF69C2AEE4B3E083E0DD
S1134B800D9001928150E1F7EAE8F3E0209709F4EF
S1134B9055C2AEE4B3E083E00D9001928150E1F799
S1134BA0EDE8F3E0AAE4B1E083E00D9001928150D6
S1134BB0E1F7E0E9F3E0AAE4B1E083E00D900192CB
S1134BC08150E1F7E3E9F3E0AAE4B1E083E00D907A
S1134BD001928150E1F7E6E9F3E0AAE4B1E083E071
S1134BE00D9001928150E1F7E9E9F3E0AAE4B1E024
S1134BF083E00D9001928150E1F7ECE9F3E0AAE43F
S1134C00B1E083E00D9001928150E1F7C90109966A
S1134C10EC01C170D070EFE9F3E080FF27C2AEE48D
S1134C20B3E083E00D9001928150E1F7E2EAF3E012
S1134C300115110509F412C2AEE4B3E083E00D904E
S1134C4001928150E1F7E5EAF3E0AAE4B1E083E000
S1134C500D9001928150E1F7E8EAF3E0AAE4B1E0B3
S1134C6083E00D9001928150E1F7EBEAF3E0AAE4CE
S1134C70B1E083E00D9001928150E1F7EEEAF3E0B8
S1134C80AAE4B1E083E00D9001928150E1F7E1EBF9
S1134C90F3E0AAE4B1E083E00D9001928150E1F7E2
S1134CA0E4EBF3E0AAE4B1E083E00D9001928150DB
S1134CB0E1F7890101701070E7EBF3E020FFE6C132
S1134CC0AEE4B3E083E00D9001928150E1F7EAEBAA
S1134CD0F3E0E114F10409F4D1C1AEE4B3E083E0FC
S1134CE00D9001928150E1F7EDEBF3E0AAE4B1E01D
S1134CF083E00D9001928150E1F7E0ECF3E0AAE447
S1134D00B1E083E00D9001928150E1F7E3ECF3E030
S1134D10AAE4B1E083E00D9001928150E1F7E6EC62
S1134D20F3E0AAE4B1E083E00D9001928150E1F751
S1134D30E9ECF3E0AAE4B1E083E00D900192815044
S1134D40E1F7ECECF3E0AAE4B1E083E00D9001922A
S1134D508150E1F7C9010B96F1E0EF2EF12CE82226
S1134D60F922EFECF3E080FFA1C1AEE4B3E083E00D
S1134D700D9001928150E1F7E2EDF3E0C114D1040A
S1134D8009F48CC1AEE4B3E083E00D90019281504C
S1134D90E1F7E5EDF3E0AAE4B1E083E00D900192E0
S1134DA08150E1F7E8EDF3E0AAE4B1E083E00D908F
S1134DB001928150E1F7EBEDF3E0AAE4B1E083E086
S1134DC00D9001928150E1F7EEEDF3E0AAE4B1E039
S1134DD083E00D9001928150E1F7E1EEF3E0AAE463
S1134DE0B1E083E00D9001928150E1F7E4EEF3E04D
S1134DF0AAE4B1E083E00D9001928150E1F7E1E093
S1134E00CE2ED12CC222D322E7EEF3E020FF56C1EE
S1134E10AEE4B3E083E00D9001928150E1F7EAEE55
S1134E20F3E0A114B10409F451C1AEE4B3E083E0AA
S1134E300D9001928150E1F7EDEEF3E0AAE4B1E0C8
S1134E4083E00D9001928150E1F7E0EFF3E0AAE4F2
S1134E50B1E083E00D9001928150E1F7E3EFF3E0DC
S1134E60AAE4B1E083E00D9001928150E1F7E6EF0E
S1134E70F3E0AAE4B1E083E00D9001928150E1F700
S1134E80E9EFF3E0AAE4B1E083E00D9001928150F0
S1134E90E1F7ECEFF3E0AAE4B1E083E00D900192D6
S1134EA08150E1F7C9010D9651E0A52EB12CA8223D
S1134EB0B922EFEFF3E080FF51C1AEE4B3E083E049
S1134EC00D9001928150E1F7E2E0F4E08114910445
S1134ED009F41CC1AEE4B3E083E00D90019281506B
S1134EE0E1F7E5E0F4E06115710509F407C1AEE40A
S1134EF0B3E083E00D9001928150E1F7E8E0F4E043
S1134F00209709F4F3C0AEE4B3E083E00D9001927E
S1134F108150E1F7EBE0F4E00115110509F406C155
S1134F20AEE4B3E083E00D9001928150E1F7EEE04E
S1134F30F4E0E114F10409F4F1C0AEE4B3E083E079
S1134F400D9001928150E1F7A1E1B4E0C114D104C4
S1134F5009F4F4C0EEE4F3E083E001900D92815093
S1134F60E1F7A4E1B4E0A114B10409F4B7C0EEE49C
S1134F70F3E083E001900D928150E1F7A7E1B4E002
S1134F8020FFE4C0EEE4F3E083E001900D92815051
S1134F90E1F7FECCEAE4F1E083E001900D92815068
S1134FA0E1F72FCDEAE4F1E083E001900D92815026
S1134FB0E1F737CDAAE4B1E083E00D90019281508E
S1134FC0E1F73DCDAAE4B1E083E00D900192815078
S1134FD0E1F745CDAAE4B1E083E00D900192815060
S1134FE0E1F74DCDAAE4B1E083E00D900192815048
S1134FF0E1F757CDAAE4B1E083E00D90019281502E
S1135000E1F75FCDAAE4B1E083E00D900192815015
S1135010E1F769CDAAE4B1E083E00D9001928150FB
S1135020E1F76ECD0E94CD2D63E070E00E94592D12
S1135030825B9C4F21E0FC012083D2CCAAE4B1E046
S113504083E00D9001928150E1F7AACDAAE4B1E08A
S113505083E00D9001928150E1F796CDAAE4B1E08E
S113506083E00D9001928150E1F7EDCDAAE4B1E027
S113507083E00D9001928150E1F7D8CDAAE4B1E02C
S113508083E00D9001928150E1F72ECEAAE4B1E0C5
S113509083E00D9001928150E1F719CEAAE4B1E0CA
S11350A083E00D9001928150E1F773CEAAE4B1E060
S11350B083E00D9001928150E1F75ECEAAE4B1E065
S11350C083E00D9001928150E1F7A9CEAAE4B1E00A
S11350D083E00D9001928150E1F7AECEEAE4F1E075
S11350E083E001900D928150E1F748CFAAE4B1E04A
S11350F083E00D9001928150E1F70CCFAAE4B1E076
S113510083E00D9001928150E1F7F8CEAAE4B1E07A
S113511083E00D9001928150E1F7E3CEAAE4B1E07F
S113512083E00D9001928150E1F70ECFAAE4B1E043
S113513083E00D9001928150E1F7F9CEEAE4F1E0C9
S113514083E001900D928150E1F70BCFEAE4F1E0A6
S113515083E001900D928150E1F71ACCAAE4B1E00A
S113516083E00D9001928150E1F7AECECF93DF93AF
S11351700F92CDB7DEB789836091E8007091E900A2
S113518080919600909197000E94E62D898182304B
S113519009F4A7C0833098F0843009F4D3C0843074
S11351A008F065C080915301815080935301809130
S11351B0670181508093670192E099831AC0882324
S11351C081F0813009F4A5C0813009F499C081309F
S11351D008F480C0823009F4C4C00F90DF91CF91ED
S11351E008958091740484FF75C082E0898380915E
S11351F067018F5F0E94F219809167018F5F80932E
S113520067010E94AA1A1092720410925701109218
S113521056011092550120917E0430E080917F0464
S113522090E0F901EE0FFF1FE20FF31F9C01220F24
S1135230331F280F391F220F331F220F331F220F52
S1135240331FE20FF31FE65AFC4FA0E8B4E083E0FB
S11352500D9001928150E1F7A3E8B4E0ECE5F4E0AD
S113526083E001900D928150E1F78981B6CF8F3FA1
S113527009F0AACF198288E08093800410928104F7
S11352801092820410928304109284041092850474
S11352901092670183E08093530180E690E090933D
S11352A09400809393009093E9008093E80081E058
S11352B08093640186E194E090937704809376046C
S11352C010927B0410927A0481E090E09093790428
S11352D0809378040E94B42489810F90DF91CF9148
S11352E0089580916701805D80938D0082E890E04D
S11352F09093E9008093E80081E0809364018983BE
S1135300CE0101960E94DE2189810F90DF91CF9119
S1135310089590917E04209174043091750493371C
S1135320D9F0207330702033310509F04DCF81E777
S113533090E09093E9008093E80081E08093640119
S113534084E04BCF2091740430917504211531050C
S113535009F043CF8FEF41CF23FFE3CF82E089836E
S1135360E0CF8091670145CF21E030E002C0220FF9
S1135370331F6A95E2F7442321F420952823822FD2
S11353800895282B822F089521E030E002C0220FD7
S1135390331F6A95E2F782230895E091EC00F091BF
S11353A0ED009081977F9083E091F000F091F100FF
S11353B0A091EC00B091ED009C919083E091F200FB
S11353C0F091F3008083E091EC00F091ED00808196
S11353D080618083E091F000F091F100A091EC00F5
S11353E0B091ED008C9180830895E091EC00F091F0
S11353F0ED0080818F7E8083E091F000F091F100D8
S1135400A091EC00B091ED008C9180830895E0911F
S1135410EC00F091ED00908198609083E091F000B1
S1135420F091F100A091EC00B091ED009C9190837B
S1135430E091F200F091F3008083E091EC00F091B0
S1135440ED00808180618083E091F000F091F100B3
S1135450A091EC00B091ED008C9180830895E091CF
S1135460EC00F091ED0080818F7E8083E091F0006C
S1135470F091F100A091EC00B091ED008C9180834B
S11354800895E091EC00F091ED009081977F908376
S1135490E091F000F091F100A091EC00B091ED00EA
S11354A09C919083E091F200F091F3008031A0F0A0
S11354B080558083E091EC00F091ED008081806163
S11354C08083E091F000F091F100A091EC00B091A4
S11354D0ED008C91808308958058EBCF80E008958F
S11354E086E194E0909377048093760410927B0491
S11354F010927A0481E090E0909379048093780488
S1135500EFEFE0931A0441E050E060E070E0409374
S11355101B0450931C0460931D0470931E04409359
S11355201F0450932004609321047093220489E0A3
S113553093E09093240480932304E0933B044093EA
S11355403C0450933D0460933E0470933F044093A5
S113555040045093410460934204709343048AE6E8
S113556095E09093450480934404E093250484E6F5
S113557090E0A0E0B0E08093260490932704A093E9
S11355802804B093290480932A0490932B04A093B5
S11355902C04B0932D042BE232E030932F0420939B
S11355A02E04E09330048093310490933204A0934A
S11355B03304B09334048093350490933604A09359
S11355C03704B093380426EB38E230933A0420933E
S11355D03904E09346040AE010E020E030E0009350
S11355E04704109348042093490430934A040093D9
S11355F04B0410934C0420934D0430934E0428E242
S113560037E03093500420934F04E0935104809387
S1135610520490935304A0935404B093550480937C
S1135620560490935704A0935804B093590489EDF9
S113563092E090935B0480935A0410925F0481E09B
S11356408093600492E09093610423E020936204C9
S113565034E030936304F5E0F0936404A6E0A0938F
S11356606504B7E0B0936604C8E0C0936704B093E0
S11356706804A0936904F0936A0430936B04209344
S11356806C0490936D0480936E0420E1209359037D
S1135690EABB10926F041BBA2EEF27BB80937D04E4
S11356A088BBE4BB1092730415BAE1BB109270047A
S11356B012BA10925A0310925B0310925C03109278
S11356C05D0310925E0310925F03109260031092C8
S11356D061031092620310926303109264031092A8
S11356E06503109266031092670310926803109288
S11356F0690310926A0310926B0310926C03109268
S11357006D0310926E0310926F0310927003109247
S11357107103109272031092730310927403109227
S11357207503109276031092770310927803109207
S1135730790310927A0310927B0310927C031092E7
S11357407D0310927E0310927F03109280031092C7
S113575081031092820310928303109284031092A7
S11357608503109286031092870310928803109287
S1135770890310928A0310928B0310928C03109267
S11357808D0310928E0310928F0310929003109247
S11357909103109292031092930310929403109227
S11357A09503109296031092970310929803109207
S11357B0990310929A0310929B0310929C031092E7
S11357C09D0310929E0310929F031092A0031092C7
S11357D0A1031092A2031092A3031092A4031092A7
S11357E0A5031092A6031092A7031092A803109287
S11357F0A9031092AA031092AB031092AC03109267
S1135800AD031092AE031092AF031092B003109246
S1135810B1031092B2031092B3031092B403109226
S1135820B5031092B6031092B7031092B803109206
S1135830B9031092BA031092BB031092BC031092E6
S1135840BD031092BE031092BF031092C0031092C6
S1135850C1031092C2031092C3031092C4031092A6
S1135860C5031092C6031092C7031092C803109286
S1135870C9031092CA031092CB031092CC03109266
S1135880CD031092CE031092CF031092D003109246
S1135890D1031092D2031092D3031092D403109226
S11358A0D5031092D6031092D7031092D803109206
S11358B0D9031092DA031092DB031092DC031092E6
S11358C0DD031092DE031092DF031092E0031092C6
S11358D0E1031092E2031092E3031092E4031092A6
S11358E0E5031092E6031092E7031092E803109286
S11358F0E9031092EA031092EB031092EC03109266
S1135900ED031092EE031092EF031092F003109245
S1135910F1031092F2031092F3031092F403109225
S1135920F5031092F6031092F7031092F803109205
S1135930F9031092FA031092FB031092FC031092E5
S1135940FD031092FE031092FF03109200041092C4
S113595001041092020410920304109204041092A1
S11359600504109206041092070410920804109281
S1135970090410920A0410920B0410920C04109261
S11359800D0410920E0410920F0410921004109241
S11359901104109212041092130410921404109221
S11359A01504109216041092170410921804109201
S11359B01904409346015093470160934801709342
S11359C049018BE083BF89E18CBF99BF12BE40932C
S11359D048035093490360934A0370934B038FB772
S11359E080688FBF10E0163088F5E12EFF24670130
S11359F0CC0CDD1C5701AA0CBB1CAA0CBB1CAA0CAA
S1135A00BB1CE601CA0DDB1DCE0DDF1DC65EDB4FE0
S1135A108D819E81AF81B88549815A816B817C815A
S1135A2084179507A607B707C8F40196A11DB11DF1
S1135A30F601EA0DFB1DEE0DFF1DE65EFB4F8583AF
S1135A409683A783B0871F5F163078F280914C034A
S1135A508823E1F310924C0310E0C7CFE985FA855F
S1135A6088810995888381E090E0A0E0B0E0E0CFF0
S1135A7087FB082E062687FD819567FD61952CD04E
S1135A800EF4919507FC81950895AA1BBB1B51E167
S1135A9007C0AA1FBB1FA617B70710F0A61BB70B9A
S1135AA0881F991F5A95A9F780959095BC01CD013F
S1135AB0089597FB092E07260AD077FD04D0E5DF69
S1135AC006D000201AF4709561957F4F0895F6F77B
S1135AD0909581959F4F0895991B79E004C0991F73
S1135AE0961708F0961B881F7A95C9F78095089534
S1135AF08F929F92AF92BF92CF92DF92EF92FF92DA
S1135B00CF93DF93EC0188819981AA81BB810097AF
S1135B10A105B10521F484E299EDABE5B7E0BC0140
S1135B20CD012DE133EF41E050E00E940C2E4901FC
S1135B305A0127EA31E440E050E00E94ED2D6B0168
S1135B407C01C501B4012CEE34EF4FEF5FEF0E94EE
S1135B50ED2DDC01CB01C80ED91EEA1EFB1EF7FE9B
S1135B6008C08FEF9FEFAFEFBFE7C80ED91EEA1E44
S1135B70FB1EC882D982EA82FB82C6019F77DF912D
S1135B80CF91FF90EF90DF90CF90BF90AF909F9018
S1135B908F9008950E94782D08958DE491E00E94DD
S1135BA0782D0895A0E0B0E080934D0190934E01CC
S1135BB0A0934F01B09350010895FB01DC0102C092
S1135BC005900D9241505040D8F70895FB01DC0137
S1135BD001900D920020E1F70895629FD001739F18
S1135BE0F001829FE00DF11D649FE00DF11D929F75
S1135BF0F00D839FF00D749FF00D659FF00D9927B4
S1135C00729FB00DE11DF91F639FB00DE11DF91FD7
S1135C10BD01CF011124089597FB092E05260ED04E
S1135C2057FD04D014D00AD0001C38F45095409588
S1135C30309521953F4F4F4F5F4F0895F6F790955C
S1135C408095709561957F4F8F4F9F4F0895A1E286
S1135C501A2EAA1BBB1BFD010DC0AA1FBB1FEE1FE2
S1135C60FF1FA217B307E407F50720F0A21BB30B2D
S1135C70E40BF50B661F771F881F991F1A9469F7A9
S1135C8060957095809590959B01AC01BD01CF0105
S1095C900895F894FFCF13
S1135C96202020505245535320535441525421201E
S1135CA60020202047414D4520524553455421208C
S1135CB62000202020204C6576656C3A2020202088
S1135CC6202000600003980020202020202020208F
S1135CD6202020202020202043532031323042200F
