:100000000C942A000C9447000C9447000C94470071
:100010000C9447000C9447000C9447000C94470044
:100020000C9447000C9447000C94E3000C94470098
:100030000C9447000C9447000C9447000C94470024
:100040000C9447000C9447000C9447000C94470014
:100050000C94470011241FBECFE5D8E0DEBFCDBF12
:1000600010E0A0E6B0E0EAE1F9E002C005900D92F0
:10007000A239B107D9F710E0A2E9B0E001C01D92A2
:10008000A23DB107E1F70E9418030C948B040C9475
:1000900000008230A9F0833030F4882309F448C08E
:1000A0008130E1F408C0843081F0843008F442C02B
:1000B0008530A1F40EC0909193009923E9F508953D
:1000C000909194009923A9F115C01092920085E0B7
:1000D000089590919400992361F530C01092920098
:1000E000A6EBB0E0E0E6F0E081E101900D928150F6
:1000F000E1F708950E9441046AE070E00E94A303C2
:1001000080939B002091940020939C00E6EBF0E00C
:10011000CF0140962193E817F907E1F780E180933A
:100120009D001092C60081E08093920083E00895C4
:1001300081E0089584E0089582E0089581E00895C3
:10014000442351F041E050E09A0102C0220F331FD6
:100150006A95E2F7822B089521E030E0A90102C000
:10016000440F551F6A95E2F7BA01609586230895FA
:1001700021E030E0A90102C0440F551F6A95E2F763
:10018000842308958BE083BF8DE78CBF82E089BF15
:1001900012BE80918A0090918B00A0918C00B0914A
:1001A0008D008093950090939600A0939700B09354
:1001B00098008FB780688FBF089513BE089581E0BF
:1001C0008093990008951F920F920FB60F921124F9
:1001D0002F933F934F935F936F937F938F939F934F
:1001E000AF93BF93EF93FF9380919500909196000A
:1001F000A0919700B09198000197A109B10980934F
:10020000950090939600A0939700B0939800009764
:10021000A105B10591F40E94DF0080918A009091C0
:100220008B00A0918C00B0918D00809395009093ED
:100230009600A0939700B0939800FF91EF91BF9123
:10024000AF919F918F917F916F915F914F913F916E
:100250002F910F900FBE0F901F901895DC01CB01CE
:1002600080938A0090938B00A0938C00B0938D00B4
:100270008093950090939600A0939700B093980078
:1002800008958FEE85BB000083B360E00E94B80044
:10029000882309F46DC083B361E00E94B80088230D
:1002A00009F468C083B362E00E94B800882309F4AF
:1002B00063C083B363E00E94B800882309F45EC082
:1002C0008FED85BB000083B360E00E94B8008823F7
:1002D00009F456C083B361E00E94B800882309F492
:1002E00051C083B362E00E94B800882309F44CC077
:1002F00083B363E00E94B800882309F447C08FEB02
:1003000085BB000083B360E00E94B800882309F435
:100310003FC083B361E00E94B8008823D9F183B362
:1003200062E00E94B8008823B9F183B363E00E94C1
:10033000B800882399F18FE785BB000083B360E0A4
:100340000E94B800882361F183B361E00E94B80085
:10035000882341F183B362E00E94B800882321F131
:1003600083B363E00E94B800882301F584E4089514
:1003700081E3089584E3089587E308958AE2089568
:1003800082E3089585E3089588E3089580E308955E
:1003900083E3089586E3089589E3089583E2089549
:1003A00081E4089582E4089583E4089580E0089547
:1003B0000E9441018093940080E008951F93CF93A1
:1003C000DF93182FC0917A00D0917B00888163E081
:1003D00040E00E94A0008883E0917C00F0917D00C5
:1003E0001083C0917A00D0917B00888164E041E065
:1003F0000E94A0008883DF91CF911F910895CF9331
:10040000DF93C0917A00D0917B00888164E040E066
:100410000E94A0008883DF91CF9108951F93CF930E
:10042000DF93182FC0917A00D0917B00888163E020
:1004300041E00E94A0008883E0917C00F0917D0063
:100440001083C0917A00D0917B00888164E041E004
:100450000E94A0008883DF91CF911F910895CF93D0
:10046000DF93C0917A00D0917B00888164E040E006
:100470000E94A0008883DF91CF910895803120F4FD
:1004800080580E94DE01089581540E94DE01089583
:10049000CF93853009F442C0863080F4823049F130
:1004A000833030F48823E1F0813009F06AC01BC04A
:1004B000833031F1843009F064C029C0883009F4F8
:1004C00040C0893030F4863061F1873009F059C07E
:1004D00033C0893009F442C08A3009F052C04CC0A0
:1004E00010929A0058C080919A008A3008F04DC04E
:1004F00052C00E94FF0186E00E94DE0183E049C0F5
:100500000E94FF018FE00E94DE0184E042C00E9451
:10051000FF0181E00E94DE0185E03BC00E94FF01F7
:1005200041C0809192008823E9F11092930081E00C
:100530000E94DE0187E02DC00E94FF0110929A0008
:1005400036C00E94FF0180919A00E6EBF0E0E80FD0
:10055000F11D80810E940E0289E01BC0C0919A00AB
:10056000C03130F40E942F02CF5FC0939A001FC0A9
:100570000E942F028AE00DC090919200992391F081
:1005800008C01092930080E004C088E30E94DE015E
:1005900082E0CF91089580919A008F5F80939A00B6
:1005A00081E0F7CF81E08093930086E0F2CF8091E5
:1005B0009A000E943E0288E0ECCF0F931F93CF93E6
:1005C000DF93F62FE72F022F132FD42FC52F04C050
:1005D0000B2F1A2FD32FC22F6F2F7E2F202F312FAB
:1005E0004D2F5C2F0E94B603AB01BC01F02FE12F11
:1005F0008D2F9C2FB42FA52F362F272F4115510556
:100600006105710529F7602F712FDF91CF911F913F
:100610000F910895FC018FEF8083418352836383A0
:100620007483458356836783708732872187089553
:10063000809172009091730044E650E060E070E0B9
:1006400028ED31E00E940A038091740090917500BA
:1006500044E650E060E070E028E432E00E940A03E3
:10066000809176009091770044E650E060E070E081
:1006700029E430E00E940A038FEF87BB18BA90EF9D
:1006800094BB9FE095BB81BB1ABA8BBB64E670E05C
:1006900080E090E00E942E010E94C200C0E0D0E005
:1006A000CC24DD240F2EF2E7EF2EF0E0FF2EF02D0C
:1006B0003EC0FE01EE0FFF1FEE0DFF1D00811181F8
:1006C000F80185819681A781B0854181528163813E
:1006D000748184179507A607B707A0F00184F285F7
:1006E000E02DD8018C910995F8018083FE01EE0F71
:1006F000FF1FEE0DFF1D0190F081E02D1582168287
:1007000017821086FE01EE0FFF1FEE0DFF1D0190F8
:10071000F081E02D85819681A781B0858C599F4F0E
:10072000AF4FBF4F85839683A783B0872196C33091
:10073000D1050CF4BECF809199008823E1F310928B
:100740009900E601F4CF97FB092E07260AD077FD22
:1007500004D02ED006D000201AF4709561957F4FFA
:100760000895F6F7909581959F4F0895A1E21A2E6E
:10077000AA1BBB1BFD010DC0AA1FBB1FEE1FFF1F45
:10078000A217B307E407F50720F0A21BB30BE40B95
:10079000F50B661F771F881F991F1A9469F76095DC
:1007A0007095809590959B01AC01BD01CF01089596
:1007B000AA1BBB1B51E107C0AA1FBB1FA617B70787
:1007C00010F0A61BB70B881F991F5A95A9F78095A3
:1007D0009095BC01CD0108958F929F92AF92BF92E8
:1007E000CF92DF92EF92FF92CF93DF93EC0188815B
:1007F0009981AA81BB810097A105B10521F484E20A
:1008000099EDABE5B7E0BC01CD012DE133EF41E05F
:1008100050E00E94700449015A0127EA31E440E0A7
:1008200050E00E9451046B017C01C501B4012CEE23
:1008300034EF4FEF5FEF0E945104DC01CB01C80E93
:10084000D91EEA1EFB1EF7FE08C08FEF9FEFAFEF29
:10085000BFE7C80ED91EEA1EFB1EC882D982EA82F3
:10086000FB82C6019F77DF91CF91FF90EF90DF90E1
:10087000CF90BF90AF909F908F9008950E94EC030F
:1008800008958EE890E00E94EC030895A0E0B0E0A7
:1008900080938E0090938F00A0939000B09391006E
:1008A0000895629FD001739FF001829FE00DF11DBA
:1008B000649FE00DF11D929FF00D839FF00D749FDA
:1008C000F00D659FF00D9927729FB00DE11DF91F86
:1008D000639FB00DE11DF91FBD01CF0111240895E3
:1008E00097FB092E05260ED057FD04D03FDF0AD016
:1008F000001C38F450954095309521953F4F4F4F4F
:100900005F4F0895F6F790958095709561957F4FAC
:0A0910008F4F9F4F0895F894FFCF1A
:10091A00313233343536373839303132333435368B
:10092A0000039F00AA00C700040338003200020037
:10093A000200E8032C01E8032C0101000000010079
:02094A000000AB
:00000001FF
