S01B000064706173693030315F6C6162365F70617274332E737265635A
S11300000C942A000C9447000C9447000C9447006D
S11300100C9447000C9447000C9447000C94470040
S11300200C9447000C9447000C946A000C9447000D
S11300300C9447000C9447000C9447000C94470020
S11300400C9447000C9447000C9447000C94470010
S11300500C94470011241FBECFE5D8E0DEBFCDBF0E
S113006010E0A0E6B0E0ECE6F3E002C005900D92EB
S1130070A437B107D9F710E0A4E7B0E001C01D929E
S1130080AD37B107E1F70E945F010C94B4010C9401
S113009000008BE083BF8DE78CBF82E089BF12BE76
S11300A08091600090916100A0916200B091630022
S11300B08093740090937500A0937600B0937700BA
S11300C08FB780688FBF089513BE089581E0809331
S11300D0780008951F920F920FB60F9211242F9358
S11300E03F934F935F936F937F938F939F93AF93BC
S11300F0BF93EF93FF938091740090917500A0914A
S11301007600B09177000197A109B109809374003A
S113011090937500A0937600B09377000097A105A3
S1130120B10591F40E946600809160009091610095
S1130130A0916200B0916300809374009093750065
S1130140A0937600B0937700FF91EF91BF91AF91A8
S11301509F918F917F916F915F914F913F912F91DB
S11301600F900FBE0F901F901895DC01CB01809368
S1130170600090936100A0936200B0936300809349
S1130180740090937500A0937600B093770008955F
S1130190E82FF0E0EF70F070EC59FF4F808180950C
S11301A085BB089590917A009330C9F1943028F476
S11301B0913091F0923010F509C0953009F448C09F
S11301C09530F0F1963009F055C04AC081E0809333
S11301D07A0010927C0053C0882321F084E080933D
S11301E07A004DC080917C006FE00E9481019923C8
S11301F009F045C082E080937A0041C0882321F051
S113020084E080937A003BC080917C006FE00E9480
S113021081019923A1F583E080937A0030C088237B
S113022021F084E080937A002AC080917C006FE002
S11302300E948101992319F581E080937A001FC0FF
S1130240882311F084E001C085E080937A0017C010
S1130250882311F485E001C086E080937A000FC002
S1130260882311F086E001C081E080937A00109227
S11302707C0005C0882319F481E080937A00809182
S11302807C0090E001966FE070E00E948D01809305
S11302907C0080917A00823039F0833049F08130DB
S11302A051F48093790007C082E08093790003C001
S11302B084E0809379008091790088BB08951ABA0C
S11302C08FEF8BBB87BB18BA84BB15BA64E170E0AF
S11302D080E090E00E94B5000E94490010927A00EC
S11302E080E00E94C800D1E0C0E08D2FC8998C2F17
S11302F00E94D200809178008823E1F3C0937800B3
S1130300F4CF991B79E004C0991F961708F0961B47
S1130310881F7A95C9F78095089597FB092E0726BB
S11303200AD077FD04D00CD006D000201AF47095C2
S113033061957F4F0895F6F7909581959F4F0895A5
S1130340AA1BBB1B51E107C0AA1FBB1FA617B707F7
S113035010F0A61BB70B881F991F5A95A9F7809513
S10F03609095BC01CD010895F894FFCFE6
S113036C010000007E483D6D4B67774C7F6F5F73D7
S107037C367937177C
S9030000FC
