:100000000C942A000C9447000C9447000C94470071
:100010000C9447000C9447000C9447000C94470044
:100020000C9447000C9447000C9447000C94470034
:100030000C9447000C9447000C9447000C94470024
:100040000C9447000C9447000C9447000C94470014
:100050000C94470011241FBECFE5D8E0DEBFCDBF12
:1000600010E0A0E6B0E0E0ECF0E002C005900D92F8
:10007000A036B107D9F710E0A0E6B0E001C01D92AC
:10008000A036B107E1F70E9449000C945E000C9481
:1000900000001ABA8FEF8BBB84BB15BA81E090E0E9
:1000A00029B330E0209530952F703070AC0102C03C
:1000B000440F551F2A95E2F745BBF2CFF894FFCFC6
:00000001FF
